{"contracts/employees-details/CompanyPayroll.sol":{"CompanyPayroll":{"abi":[{"inputs":[{"internalType":"string","name":"_companyId","type":"string"},{"internalType":"string","name":"_companyName","type":"string"}],"stateMutability":"nonpayable","type":"constructor"},{"inputs":[],"name":"CompanyIdEmpty","type":"error"},{"inputs":[],"name":"CompanyNameEmpty","type":"error"},{"inputs":[],"name":"EmployeeIdEmpty","type":"error"},{"inputs":[],"name":"EmployeeNotFound","type":"error"},{"inputs":[],"name":"MismatchedArrayLengths","type":"error"},{"inputs":[{"internalType":"address","name":"owner","type":"address"}],"name":"OwnableInvalidOwner","type":"error"},{"inputs":[{"internalType":"address","name":"account","type":"address"}],"name":"OwnableUnauthorizedAccount","type":"error"},{"inputs":[],"name":"SalaryEmpty","type":"error"},{"inputs":[],"name":"SameSalary","type":"error"},{"anonymous":false,"inputs":[{"indexed":true,"internalType":"string","name":"employeeId","type":"string"}],"name":"EmployeeDeleted","type":"event"},{"anonymous":false,"inputs":[{"indexed":true,"internalType":"address","name":"previousOwner","type":"address"},{"indexed":true,"internalType":"address","name":"newOwner","type":"address"}],"name":"OwnershipTransferred","type":"event"},{"anonymous":false,"inputs":[{"indexed":true,"internalType":"string","name":"employeeId","type":"string"},{"indexed":false,"internalType":"string","name":"salary","type":"string"}],"name":"SalarySet","type":"event"},{"inputs":[{"internalType":"string[]","name":"employeeIdsArray","type":"string[]"},{"internalType":"string[]","name":"salariesArray","type":"string[]"}],"name":"bulkAddEmployees","outputs":[],"stateMutability":"nonpayable","type":"function"},{"inputs":[],"name":"companyId","outputs":[{"internalType":"string","name":"","type":"string"}],"stateMutability":"view","type":"function"},{"inputs":[],"name":"companyName","outputs":[{"internalType":"string","name":"","type":"string"}],"stateMutability":"view","type":"function"},{"inputs":[{"internalType":"string","name":"employeeId","type":"string"}],"name":"deleteEmployee","outputs":[],"stateMutability":"nonpayable","type":"function"},{"inputs":[],"name":"deployer","outputs":[{"internalType":"address","name":"","type":"address"}],"stateMutability":"view","type":"function"},{"inputs":[],"name":"getAllEmployeeDetails","outputs":[{"internalType":"string[]","name":"","type":"string[]"},{"internalType":"string[]","name":"","type":"string[]"}],"stateMutability":"view","type":"function"},{"inputs":[{"internalType":"string","name":"employeeId","type":"string"}],"name":"getEmployeeSalary","outputs":[{"internalType":"string","name":"","type":"string"}],"stateMutability":"view","type":"function"},{"inputs":[],"name":"owner","outputs":[{"internalType":"address","name":"","type":"address"}],"stateMutability":"view","type":"function"},{"inputs":[],"name":"renounceOwnership","outputs":[],"stateMutability":"nonpayable","type":"function"},{"inputs":[{"internalType":"string","name":"employeeId","type":"string"},{"internalType":"string","name":"salary","type":"string"}],"name":"setEmployeeSalary","outputs":[],"stateMutability":"nonpayable","type":"function"},{"inputs":[{"internalType":"address","name":"newOwner","type":"address"}],"name":"transferOwnership","outputs":[],"stateMutability":"nonpayable","type":"function"}],"evm":{"bytecode":{"linkReferences":{},"object":"60a060405234801561001057600080fd5b50604051612463380380612463833981810160405281019061003291906103bf565b33600073ffffffffffffffffffffffffffffffffffffffff168173ffffffffffffffffffffffffffffffffffffffff16036100a55760006040517f1e4fbdf700000000000000000000000000000000000000000000000000000000815260040161009c9190610478565b60405180910390fd5b6100b48161018660201b60201c565b5060008251036100f0576040517ff69b849900000000000000000000000000000000000000000000000000000000815260040160405180910390fd5b600081510361012b576040517f48ea997800000000000000000000000000000000000000000000000000000000815260040160405180910390fd5b816001908161013a91906106b4565b50806002908161014a91906106b4565b503373ffffffffffffffffffffffffffffffffffffffff1660808173ffffffffffffffffffffffffffffffffffffffff16815250505050610786565b60008060009054906101000a900473ffffffffffffffffffffffffffffffffffffffff169050816000806101000a81548173ffffffffffffffffffffffffffffffffffffffff021916908373ffffffffffffffffffffffffffffffffffffffff1602179055508173ffffffffffffffffffffffffffffffffffffffff168173ffffffffffffffffffffffffffffffffffffffff167f8be0079c531659141344cd1fd0a4f28419497f9722a3daafe3b4186f6b6457e060405160405180910390a35050565b6000604051905090565b600080fd5b600080fd5b600080fd5b600080fd5b6000601f19601f8301169050919050565b7f4e487b7100000000000000000000000000000000000000000000000000000000600052604160045260246000fd5b6102b182610268565b810181811067ffffffffffffffff821117156102d0576102cf610279565b5b80604052505050565b60006102e361024a565b90506102ef82826102a8565b919050565b600067ffffffffffffffff82111561030f5761030e610279565b5b61031882610268565b9050602081019050919050565b60005b83811015610343578082015181840152602081019050610328565b60008484015250505050565b600061036261035d846102f4565b6102d9565b90508281526020810184848401111561037e5761037d610263565b5b610389848285610325565b509392505050565b600082601f8301126103a6576103a561025e565b5b81516103b684826020860161034f565b91505092915050565b600080604083850312156103d6576103d5610254565b5b600083015167ffffffffffffffff8111156103f4576103f3610259565b5b61040085828601610391565b925050602083015167ffffffffffffffff81111561042157610420610259565b5b61042d85828601610391565b9150509250929050565b600073ffffffffffffffffffffffffffffffffffffffff82169050919050565b600061046282610437565b9050919050565b61047281610457565b82525050565b600060208201905061048d6000830184610469565b92915050565b600081519050919050565b7f4e487b7100000000000000000000000000000000000000000000000000000000600052602260045260246000fd5b600060028204905060018216806104e557607f821691505b6020821081036104f8576104f761049e565b5b50919050565b60008190508160005260206000209050919050565b60006020601f8301049050919050565b600082821b905092915050565b6000600883026105607fffffffffffffffffffffffffffffffffffffffffffffffffffffffffffffffff82610523565b61056a8683610523565b95508019841693508086168417925050509392505050565b6000819050919050565b6000819050919050565b60006105b16105ac6105a784610582565b61058c565b610582565b9050919050565b6000819050919050565b6105cb83610596565b6105df6105d7826105b8565b848454610530565b825550505050565b600090565b6105f46105e7565b6105ff8184846105c2565b505050565b5b81811015610623576106186000826105ec565b600181019050610605565b5050565b601f82111561066857610639816104fe565b61064284610513565b81016020851015610651578190505b61066561065d85610513565b830182610604565b50505b505050565b600082821c905092915050565b600061068b6000198460080261066d565b1980831691505092915050565b60006106a4838361067a565b9150826002028217905092915050565b6106bd82610493565b67ffffffffffffffff8111156106d6576106d5610279565b5b6106e082546104cd565b6106eb828285610627565b600060209050601f83116001811461071e576000841561070c578287015190505b6107168582610698565b86555061077e565b601f19841661072c866104fe565b60005b828110156107545784890151825560018201915060208501945060208101905061072f565b86831015610771578489015161076d601f89168261067a565b8355505b6001600288020188555050505b505050505050565b608051611cc26107a16000396000610d400152611cc26000f3fe608060405234801561001057600080fd5b50600436106100a95760003560e01c80639e546add116100715780639e546add1461012c578063a13e7ea714610148578063d093f9a414610178578063d5f3948814610197578063f2fde38b146101b5578063f5ec2eed146101d1576100a9565b806306227838146100ae5780632b77a999146100ca578063715018a6146100e65780637bc3a733146100f05780638da5cb5b1461010e575b600080fd5b6100c860048036038101906100c39190611095565b6101ef565b005b6100e460048036038101906100df91906110e2565b61049a565b005b6100ee6106c4565b005b6100f86106d8565b60405161010591906111f3565b60405180910390f35b610116610766565b6040516101239190611256565b60405180910390f35b610146600480360381019061014191906112c7565b61078f565b005b610162600480360381019061015d9190611095565b610a51565b60405161016f91906111f3565b60405180910390f35b610180610b04565b60405161018e929190611454565b60405180910390f35b61019f610d3e565b6040516101ac9190611256565b60405180910390f35b6101cf60048036038101906101ca91906114b7565b610d62565b005b6101d9610de8565b6040516101e691906111f3565b60405180910390f35b6101f7610e76565b60008282905003610234576040517f191e615e00000000000000000000000000000000000000000000000000000000815260040160405180910390fd5b600060038383604051610248929190611523565b908152602001604051809103902080546102619061156b565b90500361029a576040517fbae1574e00000000000000000000000000000000000000000000000000000000815260040160405180910390fd5b6000600483836040516102ae929190611523565b9081526020016040518091039020549050600060016005805490506102d391906115d5565b90506000600582815481106102eb576102ea611609565b5b9060005260206000200180546103009061156b565b80601f016020809104026020016040519081016040528092919081815260200182805461032c9061156b565b80156103795780601f1061034e57610100808354040283529160200191610379565b820191906000526020600020905b81548152906001019060200180831161035c57829003601f168201915b50505050509050806005848154811061039557610394611609565b5b9060005260206000200190816103ab9190611813565b50826004826040516103bd9190611916565b90815260200160405180910390208190555060058054806103e1576103e061192d565b5b6001900381819060005260206000200160006103fd9190610fc9565b905560038585604051610411929190611523565b9081526020016040518091039020600061042b9190610fc9565b6004858560405161043d929190611523565b908152602001604051809103902060009055848460405161045f929190611523565b60405180910390207fa7f06b86791087d7ae7bd9d2e2fedffa58872135f67198a92a67f6998ddd119860405160405180910390a25050505050565b6104a2610e76565b600084849050036104df576040517f191e615e00000000000000000000000000000000000000000000000000000000815260040160405180910390fd5b6000828290500361051c576040517f7940b75500000000000000000000000000000000000000000000000000000000815260040160405180910390fd5b818160405161052c92919061198c565b604051809103902060038585604051610546929190611523565b90815260200160405180910390206040516105619190611a3d565b6040518091039020036105a0576040517fd965276600000000000000000000000000000000000000000000000000000000815260040160405180910390fd5b6000600385856040516105b4929190611523565b908152602001604051809103902080546105cd9061156b565b90500361063d57600580549050600485856040516105ec929190611523565b908152602001604051809103902081905550600584849091806001815401808255809150506001900390600052602060002001600090919290919290919290919250918261063b929190611a5f565b505b818160038686604051610651929190611523565b9081526020016040518091039020918261066c929190611a5f565b50838360405161067d929190611523565b60405180910390207f381382d228906c8060faf0b64eb3b7332dcf10b67e09b1bd1027e9c0eead774783836040516106b6929190611b5c565b60405180910390a250505050565b6106cc610e76565b6106d66000610efd565b565b600180546106e59061156b565b80601f01602080910402602001604051908101604052809291908181526020018280546107119061156b565b801561075e5780601f106107335761010080835404028352916020019161075e565b820191906000526020600020905b81548152906001019060200180831161074157829003601f168201915b505050505081565b60008060009054906101000a900473ffffffffffffffffffffffffffffffffffffffff16905090565b610797610e76565b8181905084849050146107d6576040517f568efce200000000000000000000000000000000000000000000000000000000815260040160405180910390fd5b60005b84849050811015610a4a5760008585838181106107f9576107f8611609565b5b905060200281019061080b9190611b8f565b8080601f016020809104026020016040519081016040528093929190818152602001838380828437600081840152601f19601f820116905080830192505050505050509050600084848481811061086557610864611609565b5b90506020028101906108779190611b8f565b8080601f016020809104026020016040519081016040528093929190818152602001838380828437600081840152601f19601f82011690508083019250505050505050905060008251036108f7576040517f191e615e00000000000000000000000000000000000000000000000000000000815260040160405180910390fd5b6000815103610932576040517f7940b75500000000000000000000000000000000000000000000000000000000815260040160405180910390fd5b60006003836040516109449190611916565b9081526020016040518091039020805461095d9061156b565b9050036109c25760058054905060048360405161097a9190611916565b9081526020016040518091039020819055506005829080600181540180825580915050600190039060005260206000200160009091909190915090816109c09190611813565b505b806003836040516109d39190611916565b908152602001604051809103902090816109ed9190611813565b50816040516109fc9190611916565b60405180910390207f381382d228906c8060faf0b64eb3b7332dcf10b67e09b1bd1027e9c0eead774782604051610a3391906111f3565b60405180910390a2505080806001019150506107d9565b5050505050565b606060038383604051610a65929190611523565b90815260200160405180910390208054610a7e9061156b565b80601f0160208091040260200160405190810160405280929190818152602001828054610aaa9061156b565b8015610af75780601f10610acc57610100808354040283529160200191610af7565b820191906000526020600020905b815481529060010190602001808311610ada57829003601f168201915b5050505050905092915050565b6060806000600580549050905060008167ffffffffffffffff811115610b2d57610b2c611638565b5b604051908082528060200260200182016040528015610b6057816020015b6060815260200190600190039081610b4b5790505b50905060005b82811015610c5d57600360058281548110610b8457610b83611609565b5b90600052602060002001604051610b9b9190611c75565b90815260200160405180910390208054610bb49061156b565b80601f0160208091040260200160405190810160405280929190818152602001828054610be09061156b565b8015610c2d5780601f10610c0257610100808354040283529160200191610c2d565b820191906000526020600020905b815481529060010190602001808311610c1057829003601f168201915b5050505050828281518110610c4557610c44611609565b5b60200260200101819052508080600101915050610b66565b5060058181805480602002602001604051908101604052809291908181526020016000905b82821015610d2e578382906000526020600020018054610ca19061156b565b80601f0160208091040260200160405190810160405280929190818152602001828054610ccd9061156b565b8015610d1a5780601f10610cef57610100808354040283529160200191610d1a565b820191906000526020600020905b815481529060010190602001808311610cfd57829003601f168201915b505050505081526020019060010190610c82565b5050505091509350935050509091565b7f000000000000000000000000000000000000000000000000000000000000000081565b610d6a610e76565b600073ffffffffffffffffffffffffffffffffffffffff168173ffffffffffffffffffffffffffffffffffffffff1603610ddc5760006040517f1e4fbdf7000000000000000000000000000000000000000000000000000000008152600401610dd39190611256565b60405180910390fd5b610de581610efd565b50565b60028054610df59061156b565b80601f0160208091040260200160405190810160405280929190818152602001828054610e219061156b565b8015610e6e5780601f10610e4357610100808354040283529160200191610e6e565b820191906000526020600020905b815481529060010190602001808311610e5157829003601f168201915b505050505081565b610e7e610fc1565b73ffffffffffffffffffffffffffffffffffffffff16610e9c610766565b73ffffffffffffffffffffffffffffffffffffffff1614610efb57610ebf610fc1565b6040517f118cdaa7000000000000000000000000000000000000000000000000000000008152600401610ef29190611256565b60405180910390fd5b565b60008060009054906101000a900473ffffffffffffffffffffffffffffffffffffffff169050816000806101000a81548173ffffffffffffffffffffffffffffffffffffffff021916908373ffffffffffffffffffffffffffffffffffffffff1602179055508173ffffffffffffffffffffffffffffffffffffffff168173ffffffffffffffffffffffffffffffffffffffff167f8be0079c531659141344cd1fd0a4f28419497f9722a3daafe3b4186f6b6457e060405160405180910390a35050565b600033905090565b508054610fd59061156b565b6000825580601f10610fe75750611006565b601f0160209004906000526020600020908101906110059190611009565b5b50565b5b8082111561102257600081600090555060010161100a565b5090565b600080fd5b600080fd5b600080fd5b600080fd5b600080fd5b60008083601f84011261105557611054611030565b5b8235905067ffffffffffffffff81111561107257611071611035565b5b60208301915083600182028301111561108e5761108d61103a565b5b9250929050565b600080602083850312156110ac576110ab611026565b5b600083013567ffffffffffffffff8111156110ca576110c961102b565b5b6110d68582860161103f565b92509250509250929050565b600080600080604085870312156110fc576110fb611026565b5b600085013567ffffffffffffffff81111561111a5761111961102b565b5b6111268782880161103f565b9450945050602085013567ffffffffffffffff8111156111495761114861102b565b5b6111558782880161103f565b925092505092959194509250565b600081519050919050565b600082825260208201905092915050565b60005b8381101561119d578082015181840152602081019050611182565b60008484015250505050565b6000601f19601f8301169050919050565b60006111c582611163565b6111cf818561116e565b93506111df81856020860161117f565b6111e8816111a9565b840191505092915050565b6000602082019050818103600083015261120d81846111ba565b905092915050565b600073ffffffffffffffffffffffffffffffffffffffff82169050919050565b600061124082611215565b9050919050565b61125081611235565b82525050565b600060208201905061126b6000830184611247565b92915050565b60008083601f84011261128757611286611030565b5b8235905067ffffffffffffffff8111156112a4576112a3611035565b5b6020830191508360208202830111156112c0576112bf61103a565b5b9250929050565b600080600080604085870312156112e1576112e0611026565b5b600085013567ffffffffffffffff8111156112ff576112fe61102b565b5b61130b87828801611271565b9450945050602085013567ffffffffffffffff81111561132e5761132d61102b565b5b61133a87828801611271565b925092505092959194509250565b600081519050919050565b600082825260208201905092915050565b6000819050602082019050919050565b600082825260208201905092915050565b600061139082611163565b61139a8185611374565b93506113aa81856020860161117f565b6113b3816111a9565b840191505092915050565b60006113ca8383611385565b905092915050565b6000602082019050919050565b60006113ea82611348565b6113f48185611353565b93508360208202850161140685611364565b8060005b85811015611442578484038952815161142385826113be565b945061142e836113d2565b925060208a0199505060018101905061140a565b50829750879550505050505092915050565b6000604082019050818103600083015261146e81856113df565b9050818103602083015261148281846113df565b90509392505050565b61149481611235565b811461149f57600080fd5b50565b6000813590506114b18161148b565b92915050565b6000602082840312156114cd576114cc611026565b5b60006114db848285016114a2565b91505092915050565b600081905092915050565b82818337600083830152505050565b600061150a83856114e4565b93506115178385846114ef565b82840190509392505050565b60006115308284866114fe565b91508190509392505050565b7f4e487b7100000000000000000000000000000000000000000000000000000000600052602260045260246000fd5b6000600282049050600182168061158357607f821691505b6020821081036115965761159561153c565b5b50919050565b6000819050919050565b7f4e487b7100000000000000000000000000000000000000000000000000000000600052601160045260246000fd5b60006115e08261159c565b91506115eb8361159c565b9250828203905081811115611603576116026115a6565b5b92915050565b7f4e487b7100000000000000000000000000000000000000000000000000000000600052603260045260246000fd5b7f4e487b7100000000000000000000000000000000000000000000000000000000600052604160045260246000fd5b60008190508160005260206000209050919050565b60006020601f8301049050919050565b600082821b905092915050565b6000600883026116c97fffffffffffffffffffffffffffffffffffffffffffffffffffffffffffffffff8261168c565b6116d3868361168c565b95508019841693508086168417925050509392505050565b6000819050919050565b600061171061170b6117068461159c565b6116eb565b61159c565b9050919050565b6000819050919050565b61172a836116f5565b61173e61173682611717565b848454611699565b825550505050565b600090565b611753611746565b61175e818484611721565b505050565b5b818110156117825761177760008261174b565b600181019050611764565b5050565b601f8211156117c75761179881611667565b6117a18461167c565b810160208510156117b0578190505b6117c46117bc8561167c565b830182611763565b50505b505050565b600082821c905092915050565b60006117ea600019846008026117cc565b1980831691505092915050565b600061180383836117d9565b9150826002028217905092915050565b61181c82611163565b67ffffffffffffffff81111561183557611834611638565b5b61183f825461156b565b61184a828285611786565b600060209050601f83116001811461187d576000841561186b578287015190505b61187585826117f7565b8655506118dd565b601f19841661188b86611667565b60005b828110156118b35784890151825560018201915060208501945060208101905061188e565b868310156118d057848901516118cc601f8916826117d9565b8355505b6001600288020188555050505b505050505050565b60006118f082611163565b6118fa81856114e4565b935061190a81856020860161117f565b80840191505092915050565b600061192282846118e5565b915081905092915050565b7f4e487b7100000000000000000000000000000000000000000000000000000000600052603160045260246000fd5b600081905092915050565b6000611973838561195c565b93506119808385846114ef565b82840190509392505050565b6000611999828486611967565b91508190509392505050565b60008190508160005260206000209050919050565b600081546119c78161156b565b6119d1818661195c565b945060018216600081146119ec5760018114611a0157611a34565b60ff1983168652811515820286019350611a34565b611a0a856119a5565b60005b83811015611a2c57815481890152600182019150602081019050611a0d565b838801955050505b50505092915050565b6000611a4982846119ba565b915081905092915050565b600082905092915050565b611a698383611a54565b67ffffffffffffffff811115611a8257611a81611638565b5b611a8c825461156b565b611a97828285611786565b6000601f831160018114611ac65760008415611ab4578287013590505b611abe85826117f7565b865550611b26565b601f198416611ad486611667565b60005b82811015611afc57848901358255600182019150602085019450602081019050611ad7565b86831015611b195784890135611b15601f8916826117d9565b8355505b6001600288020188555050505b50505050505050565b6000611b3b838561116e565b9350611b488385846114ef565b611b51836111a9565b840190509392505050565b60006020820190508181036000830152611b77818486611b2f565b90509392505050565b600080fd5b600080fd5b600080fd5b60008083356001602003843603038112611bac57611bab611b80565b5b80840192508235915067ffffffffffffffff821115611bce57611bcd611b85565b5b602083019250600182023603831315611bea57611be9611b8a565b5b509250929050565b60008154611bff8161156b565b611c0981866114e4565b94506001821660008114611c245760018114611c3957611c6c565b60ff1983168652811515820286019350611c6c565b611c4285611667565b60005b83811015611c6457815481890152600182019150602081019050611c45565b838801955050505b50505092915050565b6000611c818284611bf2565b91508190509291505056fea2646970667358221220b2e97eda6375df6a27b9087c1ee029c3a70fa1a4bfb19d2cd28afe2d82e767ea64736f6c634300081b0033","opcodes":"PUSH1 0xA0 PUSH1 0x40 MSTORE CALLVALUE DUP1 ISZERO PUSH2 0x10 JUMPI PUSH1 0x0 DUP1 REVERT JUMPDEST POP PUSH1 0x40 MLOAD PUSH2 0x2463 CODESIZE SUB DUP1 PUSH2 0x2463 DUP4 CODECOPY DUP2 DUP2 ADD PUSH1 0x40 MSTORE DUP2 ADD SWAP1 PUSH2 0x32 SWAP2 SWAP1 PUSH2 0x3BF JUMP JUMPDEST CALLER PUSH1 0x0 PUSH20 0xFFFFFFFFFFFFFFFFFFFFFFFFFFFFFFFFFFFFFFFF AND DUP2 PUSH20 0xFFFFFFFFFFFFFFFFFFFFFFFFFFFFFFFFFFFFFFFF AND SUB PUSH2 0xA5 JUMPI PUSH1 0x0 PUSH1 0x40 MLOAD PUSH32 0x1E4FBDF700000000000000000000000000000000000000000000000000000000 DUP2 MSTORE PUSH1 0x4 ADD PUSH2 0x9C SWAP2 SWAP1 PUSH2 0x478 JUMP JUMPDEST PUSH1 0x40 MLOAD DUP1 SWAP2 SUB SWAP1 REVERT JUMPDEST PUSH2 0xB4 DUP2 PUSH2 0x186 PUSH1 0x20 SHL PUSH1 0x20 SHR JUMP JUMPDEST POP PUSH1 0x0 DUP3 MLOAD SUB PUSH2 0xF0 JUMPI PUSH1 0x40 MLOAD PUSH32 0xF69B849900000000000000000000000000000000000000000000000000000000 DUP2 MSTORE PUSH1 0x4 ADD PUSH1 0x40 MLOAD DUP1 SWAP2 SUB SWAP1 REVERT JUMPDEST PUSH1 0x0 DUP2 MLOAD SUB PUSH2 0x12B JUMPI PUSH1 0x40 MLOAD PUSH32 0x48EA997800000000000000000000000000000000000000000000000000000000 DUP2 MSTORE PUSH1 0x4 ADD PUSH1 0x40 MLOAD DUP1 SWAP2 SUB SWAP1 REVERT JUMPDEST DUP2 PUSH1 0x1 SWAP1 DUP2 PUSH2 0x13A SWAP2 SWAP1 PUSH2 0x6B4 JUMP JUMPDEST POP DUP1 PUSH1 0x2 SWAP1 DUP2 PUSH2 0x14A SWAP2 SWAP1 PUSH2 0x6B4 JUMP JUMPDEST POP CALLER PUSH20 0xFFFFFFFFFFFFFFFFFFFFFFFFFFFFFFFFFFFFFFFF AND PUSH1 0x80 DUP2 PUSH20 0xFFFFFFFFFFFFFFFFFFFFFFFFFFFFFFFFFFFFFFFF AND DUP2 MSTORE POP POP POP POP PUSH2 0x786 JUMP JUMPDEST PUSH1 0x0 DUP1 PUSH1 0x0 SWAP1 SLOAD SWAP1 PUSH2 0x100 EXP SWAP1 DIV PUSH20 0xFFFFFFFFFFFFFFFFFFFFFFFFFFFFFFFFFFFFFFFF AND SWAP1 POP DUP2 PUSH1 0x0 DUP1 PUSH2 0x100 EXP DUP2 SLOAD DUP2 PUSH20 0xFFFFFFFFFFFFFFFFFFFFFFFFFFFFFFFFFFFFFFFF MUL NOT AND SWAP1 DUP4 PUSH20 0xFFFFFFFFFFFFFFFFFFFFFFFFFFFFFFFFFFFFFFFF AND MUL OR SWAP1 SSTORE POP DUP2 PUSH20 0xFFFFFFFFFFFFFFFFFFFFFFFFFFFFFFFFFFFFFFFF AND DUP2 PUSH20 0xFFFFFFFFFFFFFFFFFFFFFFFFFFFFFFFFFFFFFFFF AND PUSH32 0x8BE0079C531659141344CD1FD0A4F28419497F9722A3DAAFE3B4186F6B6457E0 PUSH1 0x40 MLOAD PUSH1 0x40 MLOAD DUP1 SWAP2 SUB SWAP1 LOG3 POP POP JUMP JUMPDEST PUSH1 0x0 PUSH1 0x40 MLOAD SWAP1 POP SWAP1 JUMP JUMPDEST PUSH1 0x0 DUP1 REVERT JUMPDEST PUSH1 0x0 DUP1 REVERT JUMPDEST PUSH1 0x0 DUP1 REVERT JUMPDEST PUSH1 0x0 DUP1 REVERT JUMPDEST PUSH1 0x0 PUSH1 0x1F NOT PUSH1 0x1F DUP4 ADD AND SWAP1 POP SWAP2 SWAP1 POP JUMP JUMPDEST PUSH32 0x4E487B7100000000000000000000000000000000000000000000000000000000 PUSH1 0x0 MSTORE PUSH1 0x41 PUSH1 0x4 MSTORE PUSH1 0x24 PUSH1 0x0 REVERT JUMPDEST PUSH2 0x2B1 DUP3 PUSH2 0x268 JUMP JUMPDEST DUP2 ADD DUP2 DUP2 LT PUSH8 0xFFFFFFFFFFFFFFFF DUP3 GT OR ISZERO PUSH2 0x2D0 JUMPI PUSH2 0x2CF PUSH2 0x279 JUMP JUMPDEST JUMPDEST DUP1 PUSH1 0x40 MSTORE POP POP POP JUMP JUMPDEST PUSH1 0x0 PUSH2 0x2E3 PUSH2 0x24A JUMP JUMPDEST SWAP1 POP PUSH2 0x2EF DUP3 DUP3 PUSH2 0x2A8 JUMP JUMPDEST SWAP2 SWAP1 POP JUMP JUMPDEST PUSH1 0x0 PUSH8 0xFFFFFFFFFFFFFFFF DUP3 GT ISZERO PUSH2 0x30F JUMPI PUSH2 0x30E PUSH2 0x279 JUMP JUMPDEST JUMPDEST PUSH2 0x318 DUP3 PUSH2 0x268 JUMP JUMPDEST SWAP1 POP PUSH1 0x20 DUP2 ADD SWAP1 POP SWAP2 SWAP1 POP JUMP JUMPDEST PUSH1 0x0 JUMPDEST DUP4 DUP2 LT ISZERO PUSH2 0x343 JUMPI DUP1 DUP3 ADD MLOAD DUP2 DUP5 ADD MSTORE PUSH1 0x20 DUP2 ADD SWAP1 POP PUSH2 0x328 JUMP JUMPDEST PUSH1 0x0 DUP5 DUP5 ADD MSTORE POP POP POP POP JUMP JUMPDEST PUSH1 0x0 PUSH2 0x362 PUSH2 0x35D DUP5 PUSH2 0x2F4 JUMP JUMPDEST PUSH2 0x2D9 JUMP JUMPDEST SWAP1 POP DUP3 DUP2 MSTORE PUSH1 0x20 DUP2 ADD DUP5 DUP5 DUP5 ADD GT ISZERO PUSH2 0x37E JUMPI PUSH2 0x37D PUSH2 0x263 JUMP JUMPDEST JUMPDEST PUSH2 0x389 DUP5 DUP3 DUP6 PUSH2 0x325 JUMP JUMPDEST POP SWAP4 SWAP3 POP POP POP JUMP JUMPDEST PUSH1 0x0 DUP3 PUSH1 0x1F DUP4 ADD SLT PUSH2 0x3A6 JUMPI PUSH2 0x3A5 PUSH2 0x25E JUMP JUMPDEST JUMPDEST DUP2 MLOAD PUSH2 0x3B6 DUP5 DUP3 PUSH1 0x20 DUP7 ADD PUSH2 0x34F JUMP JUMPDEST SWAP2 POP POP SWAP3 SWAP2 POP POP JUMP JUMPDEST PUSH1 0x0 DUP1 PUSH1 0x40 DUP4 DUP6 SUB SLT ISZERO PUSH2 0x3D6 JUMPI PUSH2 0x3D5 PUSH2 0x254 JUMP JUMPDEST JUMPDEST PUSH1 0x0 DUP4 ADD MLOAD PUSH8 0xFFFFFFFFFFFFFFFF DUP2 GT ISZERO PUSH2 0x3F4 JUMPI PUSH2 0x3F3 PUSH2 0x259 JUMP JUMPDEST JUMPDEST PUSH2 0x400 DUP6 DUP3 DUP7 ADD PUSH2 0x391 JUMP JUMPDEST SWAP3 POP POP PUSH1 0x20 DUP4 ADD MLOAD PUSH8 0xFFFFFFFFFFFFFFFF DUP2 GT ISZERO PUSH2 0x421 JUMPI PUSH2 0x420 PUSH2 0x259 JUMP JUMPDEST JUMPDEST PUSH2 0x42D DUP6 DUP3 DUP7 ADD PUSH2 0x391 JUMP JUMPDEST SWAP2 POP POP SWAP3 POP SWAP3 SWAP1 POP JUMP JUMPDEST PUSH1 0x0 PUSH20 0xFFFFFFFFFFFFFFFFFFFFFFFFFFFFFFFFFFFFFFFF DUP3 AND SWAP1 POP SWAP2 SWAP1 POP JUMP JUMPDEST PUSH1 0x0 PUSH2 0x462 DUP3 PUSH2 0x437 JUMP JUMPDEST SWAP1 POP SWAP2 SWAP1 POP JUMP JUMPDEST PUSH2 0x472 DUP2 PUSH2 0x457 JUMP JUMPDEST DUP3 MSTORE POP POP JUMP JUMPDEST PUSH1 0x0 PUSH1 0x20 DUP3 ADD SWAP1 POP PUSH2 0x48D PUSH1 0x0 DUP4 ADD DUP5 PUSH2 0x469 JUMP JUMPDEST SWAP3 SWAP2 POP POP JUMP JUMPDEST PUSH1 0x0 DUP2 MLOAD SWAP1 POP SWAP2 SWAP1 POP JUMP JUMPDEST PUSH32 0x4E487B7100000000000000000000000000000000000000000000000000000000 PUSH1 0x0 MSTORE PUSH1 0x22 PUSH1 0x4 MSTORE PUSH1 0x24 PUSH1 0x0 REVERT JUMPDEST PUSH1 0x0 PUSH1 0x2 DUP3 DIV SWAP1 POP PUSH1 0x1 DUP3 AND DUP1 PUSH2 0x4E5 JUMPI PUSH1 0x7F DUP3 AND SWAP2 POP JUMPDEST PUSH1 0x20 DUP3 LT DUP2 SUB PUSH2 0x4F8 JUMPI PUSH2 0x4F7 PUSH2 0x49E JUMP JUMPDEST JUMPDEST POP SWAP2 SWAP1 POP JUMP JUMPDEST PUSH1 0x0 DUP2 SWAP1 POP DUP2 PUSH1 0x0 MSTORE PUSH1 0x20 PUSH1 0x0 KECCAK256 SWAP1 POP SWAP2 SWAP1 POP JUMP JUMPDEST PUSH1 0x0 PUSH1 0x20 PUSH1 0x1F DUP4 ADD DIV SWAP1 POP SWAP2 SWAP1 POP JUMP JUMPDEST PUSH1 0x0 DUP3 DUP3 SHL SWAP1 POP SWAP3 SWAP2 POP POP JUMP JUMPDEST PUSH1 0x0 PUSH1 0x8 DUP4 MUL PUSH2 0x560 PUSH32 0xFFFFFFFFFFFFFFFFFFFFFFFFFFFFFFFFFFFFFFFFFFFFFFFFFFFFFFFFFFFFFFFF DUP3 PUSH2 0x523 JUMP JUMPDEST PUSH2 0x56A DUP7 DUP4 PUSH2 0x523 JUMP JUMPDEST SWAP6 POP DUP1 NOT DUP5 AND SWAP4 POP DUP1 DUP7 AND DUP5 OR SWAP3 POP POP POP SWAP4 SWAP3 POP POP POP JUMP JUMPDEST PUSH1 0x0 DUP2 SWAP1 POP SWAP2 SWAP1 POP JUMP JUMPDEST PUSH1 0x0 DUP2 SWAP1 POP SWAP2 SWAP1 POP JUMP JUMPDEST PUSH1 0x0 PUSH2 0x5B1 PUSH2 0x5AC PUSH2 0x5A7 DUP5 PUSH2 0x582 JUMP JUMPDEST PUSH2 0x58C JUMP JUMPDEST PUSH2 0x582 JUMP JUMPDEST SWAP1 POP SWAP2 SWAP1 POP JUMP JUMPDEST PUSH1 0x0 DUP2 SWAP1 POP SWAP2 SWAP1 POP JUMP JUMPDEST PUSH2 0x5CB DUP4 PUSH2 0x596 JUMP JUMPDEST PUSH2 0x5DF PUSH2 0x5D7 DUP3 PUSH2 0x5B8 JUMP JUMPDEST DUP5 DUP5 SLOAD PUSH2 0x530 JUMP JUMPDEST DUP3 SSTORE POP POP POP POP JUMP JUMPDEST PUSH1 0x0 SWAP1 JUMP JUMPDEST PUSH2 0x5F4 PUSH2 0x5E7 JUMP JUMPDEST PUSH2 0x5FF DUP2 DUP5 DUP5 PUSH2 0x5C2 JUMP JUMPDEST POP POP POP JUMP JUMPDEST JUMPDEST DUP2 DUP2 LT ISZERO PUSH2 0x623 JUMPI PUSH2 0x618 PUSH1 0x0 DUP3 PUSH2 0x5EC JUMP JUMPDEST PUSH1 0x1 DUP2 ADD SWAP1 POP PUSH2 0x605 JUMP JUMPDEST POP POP JUMP JUMPDEST PUSH1 0x1F DUP3 GT ISZERO PUSH2 0x668 JUMPI PUSH2 0x639 DUP2 PUSH2 0x4FE JUMP JUMPDEST PUSH2 0x642 DUP5 PUSH2 0x513 JUMP JUMPDEST DUP2 ADD PUSH1 0x20 DUP6 LT ISZERO PUSH2 0x651 JUMPI DUP2 SWAP1 POP JUMPDEST PUSH2 0x665 PUSH2 0x65D DUP6 PUSH2 0x513 JUMP JUMPDEST DUP4 ADD DUP3 PUSH2 0x604 JUMP JUMPDEST POP POP JUMPDEST POP POP POP JUMP JUMPDEST PUSH1 0x0 DUP3 DUP3 SHR SWAP1 POP SWAP3 SWAP2 POP POP JUMP JUMPDEST PUSH1 0x0 PUSH2 0x68B PUSH1 0x0 NOT DUP5 PUSH1 0x8 MUL PUSH2 0x66D JUMP JUMPDEST NOT DUP1 DUP4 AND SWAP2 POP POP SWAP3 SWAP2 POP POP JUMP JUMPDEST PUSH1 0x0 PUSH2 0x6A4 DUP4 DUP4 PUSH2 0x67A JUMP JUMPDEST SWAP2 POP DUP3 PUSH1 0x2 MUL DUP3 OR SWAP1 POP SWAP3 SWAP2 POP POP JUMP JUMPDEST PUSH2 0x6BD DUP3 PUSH2 0x493 JUMP JUMPDEST PUSH8 0xFFFFFFFFFFFFFFFF DUP2 GT ISZERO PUSH2 0x6D6 JUMPI PUSH2 0x6D5 PUSH2 0x279 JUMP JUMPDEST JUMPDEST PUSH2 0x6E0 DUP3 SLOAD PUSH2 0x4CD JUMP JUMPDEST PUSH2 0x6EB DUP3 DUP3 DUP6 PUSH2 0x627 JUMP JUMPDEST PUSH1 0x0 PUSH1 0x20 SWAP1 POP PUSH1 0x1F DUP4 GT PUSH1 0x1 DUP2 EQ PUSH2 0x71E JUMPI PUSH1 0x0 DUP5 ISZERO PUSH2 0x70C JUMPI DUP3 DUP8 ADD MLOAD SWAP1 POP JUMPDEST PUSH2 0x716 DUP6 DUP3 PUSH2 0x698 JUMP JUMPDEST DUP7 SSTORE POP PUSH2 0x77E JUMP JUMPDEST PUSH1 0x1F NOT DUP5 AND PUSH2 0x72C DUP7 PUSH2 0x4FE JUMP JUMPDEST PUSH1 0x0 JUMPDEST DUP3 DUP2 LT ISZERO PUSH2 0x754 JUMPI DUP5 DUP10 ADD MLOAD DUP3 SSTORE PUSH1 0x1 DUP3 ADD SWAP2 POP PUSH1 0x20 DUP6 ADD SWAP5 POP PUSH1 0x20 DUP2 ADD SWAP1 POP PUSH2 0x72F JUMP JUMPDEST DUP7 DUP4 LT ISZERO PUSH2 0x771 JUMPI DUP5 DUP10 ADD MLOAD PUSH2 0x76D PUSH1 0x1F DUP10 AND DUP3 PUSH2 0x67A JUMP JUMPDEST DUP4 SSTORE POP JUMPDEST PUSH1 0x1 PUSH1 0x2 DUP9 MUL ADD DUP9 SSTORE POP POP POP JUMPDEST POP POP POP POP POP POP JUMP JUMPDEST PUSH1 0x80 MLOAD PUSH2 0x1CC2 PUSH2 0x7A1 PUSH1 0x0 CODECOPY PUSH1 0x0 PUSH2 0xD40 ADD MSTORE PUSH2 0x1CC2 PUSH1 0x0 RETURN INVALID PUSH1 0x80 PUSH1 0x40 MSTORE CALLVALUE DUP1 ISZERO PUSH2 0x10 JUMPI PUSH1 0x0 DUP1 REVERT JUMPDEST POP PUSH1 0x4 CALLDATASIZE LT PUSH2 0xA9 JUMPI PUSH1 0x0 CALLDATALOAD PUSH1 0xE0 SHR DUP1 PUSH4 0x9E546ADD GT PUSH2 0x71 JUMPI DUP1 PUSH4 0x9E546ADD EQ PUSH2 0x12C JUMPI DUP1 PUSH4 0xA13E7EA7 EQ PUSH2 0x148 JUMPI DUP1 PUSH4 0xD093F9A4 EQ PUSH2 0x178 JUMPI DUP1 PUSH4 0xD5F39488 EQ PUSH2 0x197 JUMPI DUP1 PUSH4 0xF2FDE38B EQ PUSH2 0x1B5 JUMPI DUP1 PUSH4 0xF5EC2EED EQ PUSH2 0x1D1 JUMPI PUSH2 0xA9 JUMP JUMPDEST DUP1 PUSH4 0x6227838 EQ PUSH2 0xAE JUMPI DUP1 PUSH4 0x2B77A999 EQ PUSH2 0xCA JUMPI DUP1 PUSH4 0x715018A6 EQ PUSH2 0xE6 JUMPI DUP1 PUSH4 0x7BC3A733 EQ PUSH2 0xF0 JUMPI DUP1 PUSH4 0x8DA5CB5B EQ PUSH2 0x10E JUMPI JUMPDEST PUSH1 0x0 DUP1 REVERT JUMPDEST PUSH2 0xC8 PUSH1 0x4 DUP1 CALLDATASIZE SUB DUP2 ADD SWAP1 PUSH2 0xC3 SWAP2 SWAP1 PUSH2 0x1095 JUMP JUMPDEST PUSH2 0x1EF JUMP JUMPDEST STOP JUMPDEST PUSH2 0xE4 PUSH1 0x4 DUP1 CALLDATASIZE SUB DUP2 ADD SWAP1 PUSH2 0xDF SWAP2 SWAP1 PUSH2 0x10E2 JUMP JUMPDEST PUSH2 0x49A JUMP JUMPDEST STOP JUMPDEST PUSH2 0xEE PUSH2 0x6C4 JUMP JUMPDEST STOP JUMPDEST PUSH2 0xF8 PUSH2 0x6D8 JUMP JUMPDEST PUSH1 0x40 MLOAD PUSH2 0x105 SWAP2 SWAP1 PUSH2 0x11F3 JUMP JUMPDEST PUSH1 0x40 MLOAD DUP1 SWAP2 SUB SWAP1 RETURN JUMPDEST PUSH2 0x116 PUSH2 0x766 JUMP JUMPDEST PUSH1 0x40 MLOAD PUSH2 0x123 SWAP2 SWAP1 PUSH2 0x1256 JUMP JUMPDEST PUSH1 0x40 MLOAD DUP1 SWAP2 SUB SWAP1 RETURN JUMPDEST PUSH2 0x146 PUSH1 0x4 DUP1 CALLDATASIZE SUB DUP2 ADD SWAP1 PUSH2 0x141 SWAP2 SWAP1 PUSH2 0x12C7 JUMP JUMPDEST PUSH2 0x78F JUMP JUMPDEST STOP JUMPDEST PUSH2 0x162 PUSH1 0x4 DUP1 CALLDATASIZE SUB DUP2 ADD SWAP1 PUSH2 0x15D SWAP2 SWAP1 PUSH2 0x1095 JUMP JUMPDEST PUSH2 0xA51 JUMP JUMPDEST PUSH1 0x40 MLOAD PUSH2 0x16F SWAP2 SWAP1 PUSH2 0x11F3 JUMP JUMPDEST PUSH1 0x40 MLOAD DUP1 SWAP2 SUB SWAP1 RETURN JUMPDEST PUSH2 0x180 PUSH2 0xB04 JUMP JUMPDEST PUSH1 0x40 MLOAD PUSH2 0x18E SWAP3 SWAP2 SWAP1 PUSH2 0x1454 JUMP JUMPDEST PUSH1 0x40 MLOAD DUP1 SWAP2 SUB SWAP1 RETURN JUMPDEST PUSH2 0x19F PUSH2 0xD3E JUMP JUMPDEST PUSH1 0x40 MLOAD PUSH2 0x1AC SWAP2 SWAP1 PUSH2 0x1256 JUMP JUMPDEST PUSH1 0x40 MLOAD DUP1 SWAP2 SUB SWAP1 RETURN JUMPDEST PUSH2 0x1CF PUSH1 0x4 DUP1 CALLDATASIZE SUB DUP2 ADD SWAP1 PUSH2 0x1CA SWAP2 SWAP1 PUSH2 0x14B7 JUMP JUMPDEST PUSH2 0xD62 JUMP JUMPDEST STOP JUMPDEST PUSH2 0x1D9 PUSH2 0xDE8 JUMP JUMPDEST PUSH1 0x40 MLOAD PUSH2 0x1E6 SWAP2 SWAP1 PUSH2 0x11F3 JUMP JUMPDEST PUSH1 0x40 MLOAD DUP1 SWAP2 SUB SWAP1 RETURN JUMPDEST PUSH2 0x1F7 PUSH2 0xE76 JUMP JUMPDEST PUSH1 0x0 DUP3 DUP3 SWAP1 POP SUB PUSH2 0x234 JUMPI PUSH1 0x40 MLOAD PUSH32 0x191E615E00000000000000000000000000000000000000000000000000000000 DUP2 MSTORE PUSH1 0x4 ADD PUSH1 0x40 MLOAD DUP1 SWAP2 SUB SWAP1 REVERT JUMPDEST PUSH1 0x0 PUSH1 0x3 DUP4 DUP4 PUSH1 0x40 MLOAD PUSH2 0x248 SWAP3 SWAP2 SWAP1 PUSH2 0x1523 JUMP JUMPDEST SWAP1 DUP2 MSTORE PUSH1 0x20 ADD PUSH1 0x40 MLOAD DUP1 SWAP2 SUB SWAP1 KECCAK256 DUP1 SLOAD PUSH2 0x261 SWAP1 PUSH2 0x156B JUMP JUMPDEST SWAP1 POP SUB PUSH2 0x29A JUMPI PUSH1 0x40 MLOAD PUSH32 0xBAE1574E00000000000000000000000000000000000000000000000000000000 DUP2 MSTORE PUSH1 0x4 ADD PUSH1 0x40 MLOAD DUP1 SWAP2 SUB SWAP1 REVERT JUMPDEST PUSH1 0x0 PUSH1 0x4 DUP4 DUP4 PUSH1 0x40 MLOAD PUSH2 0x2AE SWAP3 SWAP2 SWAP1 PUSH2 0x1523 JUMP JUMPDEST SWAP1 DUP2 MSTORE PUSH1 0x20 ADD PUSH1 0x40 MLOAD DUP1 SWAP2 SUB SWAP1 KECCAK256 SLOAD SWAP1 POP PUSH1 0x0 PUSH1 0x1 PUSH1 0x5 DUP1 SLOAD SWAP1 POP PUSH2 0x2D3 SWAP2 SWAP1 PUSH2 0x15D5 JUMP JUMPDEST SWAP1 POP PUSH1 0x0 PUSH1 0x5 DUP3 DUP2 SLOAD DUP2 LT PUSH2 0x2EB JUMPI PUSH2 0x2EA PUSH2 0x1609 JUMP JUMPDEST JUMPDEST SWAP1 PUSH1 0x0 MSTORE PUSH1 0x20 PUSH1 0x0 KECCAK256 ADD DUP1 SLOAD PUSH2 0x300 SWAP1 PUSH2 0x156B JUMP JUMPDEST DUP1 PUSH1 0x1F ADD PUSH1 0x20 DUP1 SWAP2 DIV MUL PUSH1 0x20 ADD PUSH1 0x40 MLOAD SWAP1 DUP2 ADD PUSH1 0x40 MSTORE DUP1 SWAP3 SWAP2 SWAP1 DUP2 DUP2 MSTORE PUSH1 0x20 ADD DUP3 DUP1 SLOAD PUSH2 0x32C SWAP1 PUSH2 0x156B JUMP JUMPDEST DUP1 ISZERO PUSH2 0x379 JUMPI DUP1 PUSH1 0x1F LT PUSH2 0x34E JUMPI PUSH2 0x100 DUP1 DUP4 SLOAD DIV MUL DUP4 MSTORE SWAP2 PUSH1 0x20 ADD SWAP2 PUSH2 0x379 JUMP JUMPDEST DUP3 ADD SWAP2 SWAP1 PUSH1 0x0 MSTORE PUSH1 0x20 PUSH1 0x0 KECCAK256 SWAP1 JUMPDEST DUP2 SLOAD DUP2 MSTORE SWAP1 PUSH1 0x1 ADD SWAP1 PUSH1 0x20 ADD DUP1 DUP4 GT PUSH2 0x35C JUMPI DUP3 SWAP1 SUB PUSH1 0x1F AND DUP3 ADD SWAP2 JUMPDEST POP POP POP POP POP SWAP1 POP DUP1 PUSH1 0x5 DUP5 DUP2 SLOAD DUP2 LT PUSH2 0x395 JUMPI PUSH2 0x394 PUSH2 0x1609 JUMP JUMPDEST JUMPDEST SWAP1 PUSH1 0x0 MSTORE PUSH1 0x20 PUSH1 0x0 KECCAK256 ADD SWAP1 DUP2 PUSH2 0x3AB SWAP2 SWAP1 PUSH2 0x1813 JUMP JUMPDEST POP DUP3 PUSH1 0x4 DUP3 PUSH1 0x40 MLOAD PUSH2 0x3BD SWAP2 SWAP1 PUSH2 0x1916 JUMP JUMPDEST SWAP1 DUP2 MSTORE PUSH1 0x20 ADD PUSH1 0x40 MLOAD DUP1 SWAP2 SUB SWAP1 KECCAK256 DUP2 SWAP1 SSTORE POP PUSH1 0x5 DUP1 SLOAD DUP1 PUSH2 0x3E1 JUMPI PUSH2 0x3E0 PUSH2 0x192D JUMP JUMPDEST JUMPDEST PUSH1 0x1 SWAP1 SUB DUP2 DUP2 SWAP1 PUSH1 0x0 MSTORE PUSH1 0x20 PUSH1 0x0 KECCAK256 ADD PUSH1 0x0 PUSH2 0x3FD SWAP2 SWAP1 PUSH2 0xFC9 JUMP JUMPDEST SWAP1 SSTORE PUSH1 0x3 DUP6 DUP6 PUSH1 0x40 MLOAD PUSH2 0x411 SWAP3 SWAP2 SWAP1 PUSH2 0x1523 JUMP JUMPDEST SWAP1 DUP2 MSTORE PUSH1 0x20 ADD PUSH1 0x40 MLOAD DUP1 SWAP2 SUB SWAP1 KECCAK256 PUSH1 0x0 PUSH2 0x42B SWAP2 SWAP1 PUSH2 0xFC9 JUMP JUMPDEST PUSH1 0x4 DUP6 DUP6 PUSH1 0x40 MLOAD PUSH2 0x43D SWAP3 SWAP2 SWAP1 PUSH2 0x1523 JUMP JUMPDEST SWAP1 DUP2 MSTORE PUSH1 0x20 ADD PUSH1 0x40 MLOAD DUP1 SWAP2 SUB SWAP1 KECCAK256 PUSH1 0x0 SWAP1 SSTORE DUP5 DUP5 PUSH1 0x40 MLOAD PUSH2 0x45F SWAP3 SWAP2 SWAP1 PUSH2 0x1523 JUMP JUMPDEST PUSH1 0x40 MLOAD DUP1 SWAP2 SUB SWAP1 KECCAK256 PUSH32 0xA7F06B86791087D7AE7BD9D2E2FEDFFA58872135F67198A92A67F6998DDD1198 PUSH1 0x40 MLOAD PUSH1 0x40 MLOAD DUP1 SWAP2 SUB SWAP1 LOG2 POP POP POP POP POP JUMP JUMPDEST PUSH2 0x4A2 PUSH2 0xE76 JUMP JUMPDEST PUSH1 0x0 DUP5 DUP5 SWAP1 POP SUB PUSH2 0x4DF JUMPI PUSH1 0x40 MLOAD PUSH32 0x191E615E00000000000000000000000000000000000000000000000000000000 DUP2 MSTORE PUSH1 0x4 ADD PUSH1 0x40 MLOAD DUP1 SWAP2 SUB SWAP1 REVERT JUMPDEST PUSH1 0x0 DUP3 DUP3 SWAP1 POP SUB PUSH2 0x51C JUMPI PUSH1 0x40 MLOAD PUSH32 0x7940B75500000000000000000000000000000000000000000000000000000000 DUP2 MSTORE PUSH1 0x4 ADD PUSH1 0x40 MLOAD DUP1 SWAP2 SUB SWAP1 REVERT JUMPDEST DUP2 DUP2 PUSH1 0x40 MLOAD PUSH2 0x52C SWAP3 SWAP2 SWAP1 PUSH2 0x198C JUMP JUMPDEST PUSH1 0x40 MLOAD DUP1 SWAP2 SUB SWAP1 KECCAK256 PUSH1 0x3 DUP6 DUP6 PUSH1 0x40 MLOAD PUSH2 0x546 SWAP3 SWAP2 SWAP1 PUSH2 0x1523 JUMP JUMPDEST SWAP1 DUP2 MSTORE PUSH1 0x20 ADD PUSH1 0x40 MLOAD DUP1 SWAP2 SUB SWAP1 KECCAK256 PUSH1 0x40 MLOAD PUSH2 0x561 SWAP2 SWAP1 PUSH2 0x1A3D JUMP JUMPDEST PUSH1 0x40 MLOAD DUP1 SWAP2 SUB SWAP1 KECCAK256 SUB PUSH2 0x5A0 JUMPI PUSH1 0x40 MLOAD PUSH32 0xD965276600000000000000000000000000000000000000000000000000000000 DUP2 MSTORE PUSH1 0x4 ADD PUSH1 0x40 MLOAD DUP1 SWAP2 SUB SWAP1 REVERT JUMPDEST PUSH1 0x0 PUSH1 0x3 DUP6 DUP6 PUSH1 0x40 MLOAD PUSH2 0x5B4 SWAP3 SWAP2 SWAP1 PUSH2 0x1523 JUMP JUMPDEST SWAP1 DUP2 MSTORE PUSH1 0x20 ADD PUSH1 0x40 MLOAD DUP1 SWAP2 SUB SWAP1 KECCAK256 DUP1 SLOAD PUSH2 0x5CD SWAP1 PUSH2 0x156B JUMP JUMPDEST SWAP1 POP SUB PUSH2 0x63D JUMPI PUSH1 0x5 DUP1 SLOAD SWAP1 POP PUSH1 0x4 DUP6 DUP6 PUSH1 0x40 MLOAD PUSH2 0x5EC SWAP3 SWAP2 SWAP1 PUSH2 0x1523 JUMP JUMPDEST SWAP1 DUP2 MSTORE PUSH1 0x20 ADD PUSH1 0x40 MLOAD DUP1 SWAP2 SUB SWAP1 KECCAK256 DUP2 SWAP1 SSTORE POP PUSH1 0x5 DUP5 DUP5 SWAP1 SWAP2 DUP1 PUSH1 0x1 DUP2 SLOAD ADD DUP1 DUP3 SSTORE DUP1 SWAP2 POP POP PUSH1 0x1 SWAP1 SUB SWAP1 PUSH1 0x0 MSTORE PUSH1 0x20 PUSH1 0x0 KECCAK256 ADD PUSH1 0x0 SWAP1 SWAP2 SWAP3 SWAP1 SWAP2 SWAP3 SWAP1 SWAP2 SWAP3 SWAP1 SWAP2 SWAP3 POP SWAP2 DUP3 PUSH2 0x63B SWAP3 SWAP2 SWAP1 PUSH2 0x1A5F JUMP JUMPDEST POP JUMPDEST DUP2 DUP2 PUSH1 0x3 DUP7 DUP7 PUSH1 0x40 MLOAD PUSH2 0x651 SWAP3 SWAP2 SWAP1 PUSH2 0x1523 JUMP JUMPDEST SWAP1 DUP2 MSTORE PUSH1 0x20 ADD PUSH1 0x40 MLOAD DUP1 SWAP2 SUB SWAP1 KECCAK256 SWAP2 DUP3 PUSH2 0x66C SWAP3 SWAP2 SWAP1 PUSH2 0x1A5F JUMP JUMPDEST POP DUP4 DUP4 PUSH1 0x40 MLOAD PUSH2 0x67D SWAP3 SWAP2 SWAP1 PUSH2 0x1523 JUMP JUMPDEST PUSH1 0x40 MLOAD DUP1 SWAP2 SUB SWAP1 KECCAK256 PUSH32 0x381382D228906C8060FAF0B64EB3B7332DCF10B67E09B1BD1027E9C0EEAD7747 DUP4 DUP4 PUSH1 0x40 MLOAD PUSH2 0x6B6 SWAP3 SWAP2 SWAP1 PUSH2 0x1B5C JUMP JUMPDEST PUSH1 0x40 MLOAD DUP1 SWAP2 SUB SWAP1 LOG2 POP POP POP POP JUMP JUMPDEST PUSH2 0x6CC PUSH2 0xE76 JUMP JUMPDEST PUSH2 0x6D6 PUSH1 0x0 PUSH2 0xEFD JUMP JUMPDEST JUMP JUMPDEST PUSH1 0x1 DUP1 SLOAD PUSH2 0x6E5 SWAP1 PUSH2 0x156B JUMP JUMPDEST DUP1 PUSH1 0x1F ADD PUSH1 0x20 DUP1 SWAP2 DIV MUL PUSH1 0x20 ADD PUSH1 0x40 MLOAD SWAP1 DUP2 ADD PUSH1 0x40 MSTORE DUP1 SWAP3 SWAP2 SWAP1 DUP2 DUP2 MSTORE PUSH1 0x20 ADD DUP3 DUP1 SLOAD PUSH2 0x711 SWAP1 PUSH2 0x156B JUMP JUMPDEST DUP1 ISZERO PUSH2 0x75E JUMPI DUP1 PUSH1 0x1F LT PUSH2 0x733 JUMPI PUSH2 0x100 DUP1 DUP4 SLOAD DIV MUL DUP4 MSTORE SWAP2 PUSH1 0x20 ADD SWAP2 PUSH2 0x75E JUMP JUMPDEST DUP3 ADD SWAP2 SWAP1 PUSH1 0x0 MSTORE PUSH1 0x20 PUSH1 0x0 KECCAK256 SWAP1 JUMPDEST DUP2 SLOAD DUP2 MSTORE SWAP1 PUSH1 0x1 ADD SWAP1 PUSH1 0x20 ADD DUP1 DUP4 GT PUSH2 0x741 JUMPI DUP3 SWAP1 SUB PUSH1 0x1F AND DUP3 ADD SWAP2 JUMPDEST POP POP POP POP POP DUP2 JUMP JUMPDEST PUSH1 0x0 DUP1 PUSH1 0x0 SWAP1 SLOAD SWAP1 PUSH2 0x100 EXP SWAP1 DIV PUSH20 0xFFFFFFFFFFFFFFFFFFFFFFFFFFFFFFFFFFFFFFFF AND SWAP1 POP SWAP1 JUMP JUMPDEST PUSH2 0x797 PUSH2 0xE76 JUMP JUMPDEST DUP2 DUP2 SWAP1 POP DUP5 DUP5 SWAP1 POP EQ PUSH2 0x7D6 JUMPI PUSH1 0x40 MLOAD PUSH32 0x568EFCE200000000000000000000000000000000000000000000000000000000 DUP2 MSTORE PUSH1 0x4 ADD PUSH1 0x40 MLOAD DUP1 SWAP2 SUB SWAP1 REVERT JUMPDEST PUSH1 0x0 JUMPDEST DUP5 DUP5 SWAP1 POP DUP2 LT ISZERO PUSH2 0xA4A JUMPI PUSH1 0x0 DUP6 DUP6 DUP4 DUP2 DUP2 LT PUSH2 0x7F9 JUMPI PUSH2 0x7F8 PUSH2 0x1609 JUMP JUMPDEST JUMPDEST SWAP1 POP PUSH1 0x20 MUL DUP2 ADD SWAP1 PUSH2 0x80B SWAP2 SWAP1 PUSH2 0x1B8F JUMP JUMPDEST DUP1 DUP1 PUSH1 0x1F ADD PUSH1 0x20 DUP1 SWAP2 DIV MUL PUSH1 0x20 ADD PUSH1 0x40 MLOAD SWAP1 DUP2 ADD PUSH1 0x40 MSTORE DUP1 SWAP4 SWAP3 SWAP2 SWAP1 DUP2 DUP2 MSTORE PUSH1 0x20 ADD DUP4 DUP4 DUP1 DUP3 DUP5 CALLDATACOPY PUSH1 0x0 DUP2 DUP5 ADD MSTORE PUSH1 0x1F NOT PUSH1 0x1F DUP3 ADD AND SWAP1 POP DUP1 DUP4 ADD SWAP3 POP POP POP POP POP POP POP SWAP1 POP PUSH1 0x0 DUP5 DUP5 DUP5 DUP2 DUP2 LT PUSH2 0x865 JUMPI PUSH2 0x864 PUSH2 0x1609 JUMP JUMPDEST JUMPDEST SWAP1 POP PUSH1 0x20 MUL DUP2 ADD SWAP1 PUSH2 0x877 SWAP2 SWAP1 PUSH2 0x1B8F JUMP JUMPDEST DUP1 DUP1 PUSH1 0x1F ADD PUSH1 0x20 DUP1 SWAP2 DIV MUL PUSH1 0x20 ADD PUSH1 0x40 MLOAD SWAP1 DUP2 ADD PUSH1 0x40 MSTORE DUP1 SWAP4 SWAP3 SWAP2 SWAP1 DUP2 DUP2 MSTORE PUSH1 0x20 ADD DUP4 DUP4 DUP1 DUP3 DUP5 CALLDATACOPY PUSH1 0x0 DUP2 DUP5 ADD MSTORE PUSH1 0x1F NOT PUSH1 0x1F DUP3 ADD AND SWAP1 POP DUP1 DUP4 ADD SWAP3 POP POP POP POP POP POP POP SWAP1 POP PUSH1 0x0 DUP3 MLOAD SUB PUSH2 0x8F7 JUMPI PUSH1 0x40 MLOAD PUSH32 0x191E615E00000000000000000000000000000000000000000000000000000000 DUP2 MSTORE PUSH1 0x4 ADD PUSH1 0x40 MLOAD DUP1 SWAP2 SUB SWAP1 REVERT JUMPDEST PUSH1 0x0 DUP2 MLOAD SUB PUSH2 0x932 JUMPI PUSH1 0x40 MLOAD PUSH32 0x7940B75500000000000000000000000000000000000000000000000000000000 DUP2 MSTORE PUSH1 0x4 ADD PUSH1 0x40 MLOAD DUP1 SWAP2 SUB SWAP1 REVERT JUMPDEST PUSH1 0x0 PUSH1 0x3 DUP4 PUSH1 0x40 MLOAD PUSH2 0x944 SWAP2 SWAP1 PUSH2 0x1916 JUMP JUMPDEST SWAP1 DUP2 MSTORE PUSH1 0x20 ADD PUSH1 0x40 MLOAD DUP1 SWAP2 SUB SWAP1 KECCAK256 DUP1 SLOAD PUSH2 0x95D SWAP1 PUSH2 0x156B JUMP JUMPDEST SWAP1 POP SUB PUSH2 0x9C2 JUMPI PUSH1 0x5 DUP1 SLOAD SWAP1 POP PUSH1 0x4 DUP4 PUSH1 0x40 MLOAD PUSH2 0x97A SWAP2 SWAP1 PUSH2 0x1916 JUMP JUMPDEST SWAP1 DUP2 MSTORE PUSH1 0x20 ADD PUSH1 0x40 MLOAD DUP1 SWAP2 SUB SWAP1 KECCAK256 DUP2 SWAP1 SSTORE POP PUSH1 0x5 DUP3 SWAP1 DUP1 PUSH1 0x1 DUP2 SLOAD ADD DUP1 DUP3 SSTORE DUP1 SWAP2 POP POP PUSH1 0x1 SWAP1 SUB SWAP1 PUSH1 0x0 MSTORE PUSH1 0x20 PUSH1 0x0 KECCAK256 ADD PUSH1 0x0 SWAP1 SWAP2 SWAP1 SWAP2 SWAP1 SWAP2 POP SWAP1 DUP2 PUSH2 0x9C0 SWAP2 SWAP1 PUSH2 0x1813 JUMP JUMPDEST POP JUMPDEST DUP1 PUSH1 0x3 DUP4 PUSH1 0x40 MLOAD PUSH2 0x9D3 SWAP2 SWAP1 PUSH2 0x1916 JUMP JUMPDEST SWAP1 DUP2 MSTORE PUSH1 0x20 ADD PUSH1 0x40 MLOAD DUP1 SWAP2 SUB SWAP1 KECCAK256 SWAP1 DUP2 PUSH2 0x9ED SWAP2 SWAP1 PUSH2 0x1813 JUMP JUMPDEST POP DUP2 PUSH1 0x40 MLOAD PUSH2 0x9FC SWAP2 SWAP1 PUSH2 0x1916 JUMP JUMPDEST PUSH1 0x40 MLOAD DUP1 SWAP2 SUB SWAP1 KECCAK256 PUSH32 0x381382D228906C8060FAF0B64EB3B7332DCF10B67E09B1BD1027E9C0EEAD7747 DUP3 PUSH1 0x40 MLOAD PUSH2 0xA33 SWAP2 SWAP1 PUSH2 0x11F3 JUMP JUMPDEST PUSH1 0x40 MLOAD DUP1 SWAP2 SUB SWAP1 LOG2 POP POP DUP1 DUP1 PUSH1 0x1 ADD SWAP2 POP POP PUSH2 0x7D9 JUMP JUMPDEST POP POP POP POP POP JUMP JUMPDEST PUSH1 0x60 PUSH1 0x3 DUP4 DUP4 PUSH1 0x40 MLOAD PUSH2 0xA65 SWAP3 SWAP2 SWAP1 PUSH2 0x1523 JUMP JUMPDEST SWAP1 DUP2 MSTORE PUSH1 0x20 ADD PUSH1 0x40 MLOAD DUP1 SWAP2 SUB SWAP1 KECCAK256 DUP1 SLOAD PUSH2 0xA7E SWAP1 PUSH2 0x156B JUMP JUMPDEST DUP1 PUSH1 0x1F ADD PUSH1 0x20 DUP1 SWAP2 DIV MUL PUSH1 0x20 ADD PUSH1 0x40 MLOAD SWAP1 DUP2 ADD PUSH1 0x40 MSTORE DUP1 SWAP3 SWAP2 SWAP1 DUP2 DUP2 MSTORE PUSH1 0x20 ADD DUP3 DUP1 SLOAD PUSH2 0xAAA SWAP1 PUSH2 0x156B JUMP JUMPDEST DUP1 ISZERO PUSH2 0xAF7 JUMPI DUP1 PUSH1 0x1F LT PUSH2 0xACC JUMPI PUSH2 0x100 DUP1 DUP4 SLOAD DIV MUL DUP4 MSTORE SWAP2 PUSH1 0x20 ADD SWAP2 PUSH2 0xAF7 JUMP JUMPDEST DUP3 ADD SWAP2 SWAP1 PUSH1 0x0 MSTORE PUSH1 0x20 PUSH1 0x0 KECCAK256 SWAP1 JUMPDEST DUP2 SLOAD DUP2 MSTORE SWAP1 PUSH1 0x1 ADD SWAP1 PUSH1 0x20 ADD DUP1 DUP4 GT PUSH2 0xADA JUMPI DUP3 SWAP1 SUB PUSH1 0x1F AND DUP3 ADD SWAP2 JUMPDEST POP POP POP POP POP SWAP1 POP SWAP3 SWAP2 POP POP JUMP JUMPDEST PUSH1 0x60 DUP1 PUSH1 0x0 PUSH1 0x5 DUP1 SLOAD SWAP1 POP SWAP1 POP PUSH1 0x0 DUP2 PUSH8 0xFFFFFFFFFFFFFFFF DUP2 GT ISZERO PUSH2 0xB2D JUMPI PUSH2 0xB2C PUSH2 0x1638 JUMP JUMPDEST JUMPDEST PUSH1 0x40 MLOAD SWAP1 DUP1 DUP3 MSTORE DUP1 PUSH1 0x20 MUL PUSH1 0x20 ADD DUP3 ADD PUSH1 0x40 MSTORE DUP1 ISZERO PUSH2 0xB60 JUMPI DUP2 PUSH1 0x20 ADD JUMPDEST PUSH1 0x60 DUP2 MSTORE PUSH1 0x20 ADD SWAP1 PUSH1 0x1 SWAP1 SUB SWAP1 DUP2 PUSH2 0xB4B JUMPI SWAP1 POP JUMPDEST POP SWAP1 POP PUSH1 0x0 JUMPDEST DUP3 DUP2 LT ISZERO PUSH2 0xC5D JUMPI PUSH1 0x3 PUSH1 0x5 DUP3 DUP2 SLOAD DUP2 LT PUSH2 0xB84 JUMPI PUSH2 0xB83 PUSH2 0x1609 JUMP JUMPDEST JUMPDEST SWAP1 PUSH1 0x0 MSTORE PUSH1 0x20 PUSH1 0x0 KECCAK256 ADD PUSH1 0x40 MLOAD PUSH2 0xB9B SWAP2 SWAP1 PUSH2 0x1C75 JUMP JUMPDEST SWAP1 DUP2 MSTORE PUSH1 0x20 ADD PUSH1 0x40 MLOAD DUP1 SWAP2 SUB SWAP1 KECCAK256 DUP1 SLOAD PUSH2 0xBB4 SWAP1 PUSH2 0x156B JUMP JUMPDEST DUP1 PUSH1 0x1F ADD PUSH1 0x20 DUP1 SWAP2 DIV MUL PUSH1 0x20 ADD PUSH1 0x40 MLOAD SWAP1 DUP2 ADD PUSH1 0x40 MSTORE DUP1 SWAP3 SWAP2 SWAP1 DUP2 DUP2 MSTORE PUSH1 0x20 ADD DUP3 DUP1 SLOAD PUSH2 0xBE0 SWAP1 PUSH2 0x156B JUMP JUMPDEST DUP1 ISZERO PUSH2 0xC2D JUMPI DUP1 PUSH1 0x1F LT PUSH2 0xC02 JUMPI PUSH2 0x100 DUP1 DUP4 SLOAD DIV MUL DUP4 MSTORE SWAP2 PUSH1 0x20 ADD SWAP2 PUSH2 0xC2D JUMP JUMPDEST DUP3 ADD SWAP2 SWAP1 PUSH1 0x0 MSTORE PUSH1 0x20 PUSH1 0x0 KECCAK256 SWAP1 JUMPDEST DUP2 SLOAD DUP2 MSTORE SWAP1 PUSH1 0x1 ADD SWAP1 PUSH1 0x20 ADD DUP1 DUP4 GT PUSH2 0xC10 JUMPI DUP3 SWAP1 SUB PUSH1 0x1F AND DUP3 ADD SWAP2 JUMPDEST POP POP POP POP POP DUP3 DUP3 DUP2 MLOAD DUP2 LT PUSH2 0xC45 JUMPI PUSH2 0xC44 PUSH2 0x1609 JUMP JUMPDEST JUMPDEST PUSH1 0x20 MUL PUSH1 0x20 ADD ADD DUP2 SWAP1 MSTORE POP DUP1 DUP1 PUSH1 0x1 ADD SWAP2 POP POP PUSH2 0xB66 JUMP JUMPDEST POP PUSH1 0x5 DUP2 DUP2 DUP1 SLOAD DUP1 PUSH1 0x20 MUL PUSH1 0x20 ADD PUSH1 0x40 MLOAD SWAP1 DUP2 ADD PUSH1 0x40 MSTORE DUP1 SWAP3 SWAP2 SWAP1 DUP2 DUP2 MSTORE PUSH1 0x20 ADD PUSH1 0x0 SWAP1 JUMPDEST DUP3 DUP3 LT ISZERO PUSH2 0xD2E JUMPI DUP4 DUP3 SWAP1 PUSH1 0x0 MSTORE PUSH1 0x20 PUSH1 0x0 KECCAK256 ADD DUP1 SLOAD PUSH2 0xCA1 SWAP1 PUSH2 0x156B JUMP JUMPDEST DUP1 PUSH1 0x1F ADD PUSH1 0x20 DUP1 SWAP2 DIV MUL PUSH1 0x20 ADD PUSH1 0x40 MLOAD SWAP1 DUP2 ADD PUSH1 0x40 MSTORE DUP1 SWAP3 SWAP2 SWAP1 DUP2 DUP2 MSTORE PUSH1 0x20 ADD DUP3 DUP1 SLOAD PUSH2 0xCCD SWAP1 PUSH2 0x156B JUMP JUMPDEST DUP1 ISZERO PUSH2 0xD1A JUMPI DUP1 PUSH1 0x1F LT PUSH2 0xCEF JUMPI PUSH2 0x100 DUP1 DUP4 SLOAD DIV MUL DUP4 MSTORE SWAP2 PUSH1 0x20 ADD SWAP2 PUSH2 0xD1A JUMP JUMPDEST DUP3 ADD SWAP2 SWAP1 PUSH1 0x0 MSTORE PUSH1 0x20 PUSH1 0x0 KECCAK256 SWAP1 JUMPDEST DUP2 SLOAD DUP2 MSTORE SWAP1 PUSH1 0x1 ADD SWAP1 PUSH1 0x20 ADD DUP1 DUP4 GT PUSH2 0xCFD JUMPI DUP3 SWAP1 SUB PUSH1 0x1F AND DUP3 ADD SWAP2 JUMPDEST POP POP POP POP POP DUP2 MSTORE PUSH1 0x20 ADD SWAP1 PUSH1 0x1 ADD SWAP1 PUSH2 0xC82 JUMP JUMPDEST POP POP POP POP SWAP2 POP SWAP4 POP SWAP4 POP POP POP SWAP1 SWAP2 JUMP JUMPDEST PUSH32 0x0 DUP2 JUMP JUMPDEST PUSH2 0xD6A PUSH2 0xE76 JUMP JUMPDEST PUSH1 0x0 PUSH20 0xFFFFFFFFFFFFFFFFFFFFFFFFFFFFFFFFFFFFFFFF AND DUP2 PUSH20 0xFFFFFFFFFFFFFFFFFFFFFFFFFFFFFFFFFFFFFFFF AND SUB PUSH2 0xDDC JUMPI PUSH1 0x0 PUSH1 0x40 MLOAD PUSH32 0x1E4FBDF700000000000000000000000000000000000000000000000000000000 DUP2 MSTORE PUSH1 0x4 ADD PUSH2 0xDD3 SWAP2 SWAP1 PUSH2 0x1256 JUMP JUMPDEST PUSH1 0x40 MLOAD DUP1 SWAP2 SUB SWAP1 REVERT JUMPDEST PUSH2 0xDE5 DUP2 PUSH2 0xEFD JUMP JUMPDEST POP JUMP JUMPDEST PUSH1 0x2 DUP1 SLOAD PUSH2 0xDF5 SWAP1 PUSH2 0x156B JUMP JUMPDEST DUP1 PUSH1 0x1F ADD PUSH1 0x20 DUP1 SWAP2 DIV MUL PUSH1 0x20 ADD PUSH1 0x40 MLOAD SWAP1 DUP2 ADD PUSH1 0x40 MSTORE DUP1 SWAP3 SWAP2 SWAP1 DUP2 DUP2 MSTORE PUSH1 0x20 ADD DUP3 DUP1 SLOAD PUSH2 0xE21 SWAP1 PUSH2 0x156B JUMP JUMPDEST DUP1 ISZERO PUSH2 0xE6E JUMPI DUP1 PUSH1 0x1F LT PUSH2 0xE43 JUMPI PUSH2 0x100 DUP1 DUP4 SLOAD DIV MUL DUP4 MSTORE SWAP2 PUSH1 0x20 ADD SWAP2 PUSH2 0xE6E JUMP JUMPDEST DUP3 ADD SWAP2 SWAP1 PUSH1 0x0 MSTORE PUSH1 0x20 PUSH1 0x0 KECCAK256 SWAP1 JUMPDEST DUP2 SLOAD DUP2 MSTORE SWAP1 PUSH1 0x1 ADD SWAP1 PUSH1 0x20 ADD DUP1 DUP4 GT PUSH2 0xE51 JUMPI DUP3 SWAP1 SUB PUSH1 0x1F AND DUP3 ADD SWAP2 JUMPDEST POP POP POP POP POP DUP2 JUMP JUMPDEST PUSH2 0xE7E PUSH2 0xFC1 JUMP JUMPDEST PUSH20 0xFFFFFFFFFFFFFFFFFFFFFFFFFFFFFFFFFFFFFFFF AND PUSH2 0xE9C PUSH2 0x766 JUMP JUMPDEST PUSH20 0xFFFFFFFFFFFFFFFFFFFFFFFFFFFFFFFFFFFFFFFF AND EQ PUSH2 0xEFB JUMPI PUSH2 0xEBF PUSH2 0xFC1 JUMP JUMPDEST PUSH1 0x40 MLOAD PUSH32 0x118CDAA700000000000000000000000000000000000000000000000000000000 DUP2 MSTORE PUSH1 0x4 ADD PUSH2 0xEF2 SWAP2 SWAP1 PUSH2 0x1256 JUMP JUMPDEST PUSH1 0x40 MLOAD DUP1 SWAP2 SUB SWAP1 REVERT JUMPDEST JUMP JUMPDEST PUSH1 0x0 DUP1 PUSH1 0x0 SWAP1 SLOAD SWAP1 PUSH2 0x100 EXP SWAP1 DIV PUSH20 0xFFFFFFFFFFFFFFFFFFFFFFFFFFFFFFFFFFFFFFFF AND SWAP1 POP DUP2 PUSH1 0x0 DUP1 PUSH2 0x100 EXP DUP2 SLOAD DUP2 PUSH20 0xFFFFFFFFFFFFFFFFFFFFFFFFFFFFFFFFFFFFFFFF MUL NOT AND SWAP1 DUP4 PUSH20 0xFFFFFFFFFFFFFFFFFFFFFFFFFFFFFFFFFFFFFFFF AND MUL OR SWAP1 SSTORE POP DUP2 PUSH20 0xFFFFFFFFFFFFFFFFFFFFFFFFFFFFFFFFFFFFFFFF AND DUP2 PUSH20 0xFFFFFFFFFFFFFFFFFFFFFFFFFFFFFFFFFFFFFFFF AND PUSH32 0x8BE0079C531659141344CD1FD0A4F28419497F9722A3DAAFE3B4186F6B6457E0 PUSH1 0x40 MLOAD PUSH1 0x40 MLOAD DUP1 SWAP2 SUB SWAP1 LOG3 POP POP JUMP JUMPDEST PUSH1 0x0 CALLER SWAP1 POP SWAP1 JUMP JUMPDEST POP DUP1 SLOAD PUSH2 0xFD5 SWAP1 PUSH2 0x156B JUMP JUMPDEST PUSH1 0x0 DUP3 SSTORE DUP1 PUSH1 0x1F LT PUSH2 0xFE7 JUMPI POP PUSH2 0x1006 JUMP JUMPDEST PUSH1 0x1F ADD PUSH1 0x20 SWAP1 DIV SWAP1 PUSH1 0x0 MSTORE PUSH1 0x20 PUSH1 0x0 KECCAK256 SWAP1 DUP2 ADD SWAP1 PUSH2 0x1005 SWAP2 SWAP1 PUSH2 0x1009 JUMP JUMPDEST JUMPDEST POP JUMP JUMPDEST JUMPDEST DUP1 DUP3 GT ISZERO PUSH2 0x1022 JUMPI PUSH1 0x0 DUP2 PUSH1 0x0 SWAP1 SSTORE POP PUSH1 0x1 ADD PUSH2 0x100A JUMP JUMPDEST POP SWAP1 JUMP JUMPDEST PUSH1 0x0 DUP1 REVERT JUMPDEST PUSH1 0x0 DUP1 REVERT JUMPDEST PUSH1 0x0 DUP1 REVERT JUMPDEST PUSH1 0x0 DUP1 REVERT JUMPDEST PUSH1 0x0 DUP1 REVERT JUMPDEST PUSH1 0x0 DUP1 DUP4 PUSH1 0x1F DUP5 ADD SLT PUSH2 0x1055 JUMPI PUSH2 0x1054 PUSH2 0x1030 JUMP JUMPDEST JUMPDEST DUP3 CALLDATALOAD SWAP1 POP PUSH8 0xFFFFFFFFFFFFFFFF DUP2 GT ISZERO PUSH2 0x1072 JUMPI PUSH2 0x1071 PUSH2 0x1035 JUMP JUMPDEST JUMPDEST PUSH1 0x20 DUP4 ADD SWAP2 POP DUP4 PUSH1 0x1 DUP3 MUL DUP4 ADD GT ISZERO PUSH2 0x108E JUMPI PUSH2 0x108D PUSH2 0x103A JUMP JUMPDEST JUMPDEST SWAP3 POP SWAP3 SWAP1 POP JUMP JUMPDEST PUSH1 0x0 DUP1 PUSH1 0x20 DUP4 DUP6 SUB SLT ISZERO PUSH2 0x10AC JUMPI PUSH2 0x10AB PUSH2 0x1026 JUMP JUMPDEST JUMPDEST PUSH1 0x0 DUP4 ADD CALLDATALOAD PUSH8 0xFFFFFFFFFFFFFFFF DUP2 GT ISZERO PUSH2 0x10CA JUMPI PUSH2 0x10C9 PUSH2 0x102B JUMP JUMPDEST JUMPDEST PUSH2 0x10D6 DUP6 DUP3 DUP7 ADD PUSH2 0x103F JUMP JUMPDEST SWAP3 POP SWAP3 POP POP SWAP3 POP SWAP3 SWAP1 POP JUMP JUMPDEST PUSH1 0x0 DUP1 PUSH1 0x0 DUP1 PUSH1 0x40 DUP6 DUP8 SUB SLT ISZERO PUSH2 0x10FC JUMPI PUSH2 0x10FB PUSH2 0x1026 JUMP JUMPDEST JUMPDEST PUSH1 0x0 DUP6 ADD CALLDATALOAD PUSH8 0xFFFFFFFFFFFFFFFF DUP2 GT ISZERO PUSH2 0x111A JUMPI PUSH2 0x1119 PUSH2 0x102B JUMP JUMPDEST JUMPDEST PUSH2 0x1126 DUP8 DUP3 DUP9 ADD PUSH2 0x103F JUMP JUMPDEST SWAP5 POP SWAP5 POP POP PUSH1 0x20 DUP6 ADD CALLDATALOAD PUSH8 0xFFFFFFFFFFFFFFFF DUP2 GT ISZERO PUSH2 0x1149 JUMPI PUSH2 0x1148 PUSH2 0x102B JUMP JUMPDEST JUMPDEST PUSH2 0x1155 DUP8 DUP3 DUP9 ADD PUSH2 0x103F JUMP JUMPDEST SWAP3 POP SWAP3 POP POP SWAP3 SWAP6 SWAP2 SWAP5 POP SWAP3 POP JUMP JUMPDEST PUSH1 0x0 DUP2 MLOAD SWAP1 POP SWAP2 SWAP1 POP JUMP JUMPDEST PUSH1 0x0 DUP3 DUP3 MSTORE PUSH1 0x20 DUP3 ADD SWAP1 POP SWAP3 SWAP2 POP POP JUMP JUMPDEST PUSH1 0x0 JUMPDEST DUP4 DUP2 LT ISZERO PUSH2 0x119D JUMPI DUP1 DUP3 ADD MLOAD DUP2 DUP5 ADD MSTORE PUSH1 0x20 DUP2 ADD SWAP1 POP PUSH2 0x1182 JUMP JUMPDEST PUSH1 0x0 DUP5 DUP5 ADD MSTORE POP POP POP POP JUMP JUMPDEST PUSH1 0x0 PUSH1 0x1F NOT PUSH1 0x1F DUP4 ADD AND SWAP1 POP SWAP2 SWAP1 POP JUMP JUMPDEST PUSH1 0x0 PUSH2 0x11C5 DUP3 PUSH2 0x1163 JUMP JUMPDEST PUSH2 0x11CF DUP2 DUP6 PUSH2 0x116E JUMP JUMPDEST SWAP4 POP PUSH2 0x11DF DUP2 DUP6 PUSH1 0x20 DUP7 ADD PUSH2 0x117F JUMP JUMPDEST PUSH2 0x11E8 DUP2 PUSH2 0x11A9 JUMP JUMPDEST DUP5 ADD SWAP2 POP POP SWAP3 SWAP2 POP POP JUMP JUMPDEST PUSH1 0x0 PUSH1 0x20 DUP3 ADD SWAP1 POP DUP2 DUP2 SUB PUSH1 0x0 DUP4 ADD MSTORE PUSH2 0x120D DUP2 DUP5 PUSH2 0x11BA JUMP JUMPDEST SWAP1 POP SWAP3 SWAP2 POP POP JUMP JUMPDEST PUSH1 0x0 PUSH20 0xFFFFFFFFFFFFFFFFFFFFFFFFFFFFFFFFFFFFFFFF DUP3 AND SWAP1 POP SWAP2 SWAP1 POP JUMP JUMPDEST PUSH1 0x0 PUSH2 0x1240 DUP3 PUSH2 0x1215 JUMP JUMPDEST SWAP1 POP SWAP2 SWAP1 POP JUMP JUMPDEST PUSH2 0x1250 DUP2 PUSH2 0x1235 JUMP JUMPDEST DUP3 MSTORE POP POP JUMP JUMPDEST PUSH1 0x0 PUSH1 0x20 DUP3 ADD SWAP1 POP PUSH2 0x126B PUSH1 0x0 DUP4 ADD DUP5 PUSH2 0x1247 JUMP JUMPDEST SWAP3 SWAP2 POP POP JUMP JUMPDEST PUSH1 0x0 DUP1 DUP4 PUSH1 0x1F DUP5 ADD SLT PUSH2 0x1287 JUMPI PUSH2 0x1286 PUSH2 0x1030 JUMP JUMPDEST JUMPDEST DUP3 CALLDATALOAD SWAP1 POP PUSH8 0xFFFFFFFFFFFFFFFF DUP2 GT ISZERO PUSH2 0x12A4 JUMPI PUSH2 0x12A3 PUSH2 0x1035 JUMP JUMPDEST JUMPDEST PUSH1 0x20 DUP4 ADD SWAP2 POP DUP4 PUSH1 0x20 DUP3 MUL DUP4 ADD GT ISZERO PUSH2 0x12C0 JUMPI PUSH2 0x12BF PUSH2 0x103A JUMP JUMPDEST JUMPDEST SWAP3 POP SWAP3 SWAP1 POP JUMP JUMPDEST PUSH1 0x0 DUP1 PUSH1 0x0 DUP1 PUSH1 0x40 DUP6 DUP8 SUB SLT ISZERO PUSH2 0x12E1 JUMPI PUSH2 0x12E0 PUSH2 0x1026 JUMP JUMPDEST JUMPDEST PUSH1 0x0 DUP6 ADD CALLDATALOAD PUSH8 0xFFFFFFFFFFFFFFFF DUP2 GT ISZERO PUSH2 0x12FF JUMPI PUSH2 0x12FE PUSH2 0x102B JUMP JUMPDEST JUMPDEST PUSH2 0x130B DUP8 DUP3 DUP9 ADD PUSH2 0x1271 JUMP JUMPDEST SWAP5 POP SWAP5 POP POP PUSH1 0x20 DUP6 ADD CALLDATALOAD PUSH8 0xFFFFFFFFFFFFFFFF DUP2 GT ISZERO PUSH2 0x132E JUMPI PUSH2 0x132D PUSH2 0x102B JUMP JUMPDEST JUMPDEST PUSH2 0x133A DUP8 DUP3 DUP9 ADD PUSH2 0x1271 JUMP JUMPDEST SWAP3 POP SWAP3 POP POP SWAP3 SWAP6 SWAP2 SWAP5 POP SWAP3 POP JUMP JUMPDEST PUSH1 0x0 DUP2 MLOAD SWAP1 POP SWAP2 SWAP1 POP JUMP JUMPDEST PUSH1 0x0 DUP3 DUP3 MSTORE PUSH1 0x20 DUP3 ADD SWAP1 POP SWAP3 SWAP2 POP POP JUMP JUMPDEST PUSH1 0x0 DUP2 SWAP1 POP PUSH1 0x20 DUP3 ADD SWAP1 POP SWAP2 SWAP1 POP JUMP JUMPDEST PUSH1 0x0 DUP3 DUP3 MSTORE PUSH1 0x20 DUP3 ADD SWAP1 POP SWAP3 SWAP2 POP POP JUMP JUMPDEST PUSH1 0x0 PUSH2 0x1390 DUP3 PUSH2 0x1163 JUMP JUMPDEST PUSH2 0x139A DUP2 DUP6 PUSH2 0x1374 JUMP JUMPDEST SWAP4 POP PUSH2 0x13AA DUP2 DUP6 PUSH1 0x20 DUP7 ADD PUSH2 0x117F JUMP JUMPDEST PUSH2 0x13B3 DUP2 PUSH2 0x11A9 JUMP JUMPDEST DUP5 ADD SWAP2 POP POP SWAP3 SWAP2 POP POP JUMP JUMPDEST PUSH1 0x0 PUSH2 0x13CA DUP4 DUP4 PUSH2 0x1385 JUMP JUMPDEST SWAP1 POP SWAP3 SWAP2 POP POP JUMP JUMPDEST PUSH1 0x0 PUSH1 0x20 DUP3 ADD SWAP1 POP SWAP2 SWAP1 POP JUMP JUMPDEST PUSH1 0x0 PUSH2 0x13EA DUP3 PUSH2 0x1348 JUMP JUMPDEST PUSH2 0x13F4 DUP2 DUP6 PUSH2 0x1353 JUMP JUMPDEST SWAP4 POP DUP4 PUSH1 0x20 DUP3 MUL DUP6 ADD PUSH2 0x1406 DUP6 PUSH2 0x1364 JUMP JUMPDEST DUP1 PUSH1 0x0 JUMPDEST DUP6 DUP2 LT ISZERO PUSH2 0x1442 JUMPI DUP5 DUP5 SUB DUP10 MSTORE DUP2 MLOAD PUSH2 0x1423 DUP6 DUP3 PUSH2 0x13BE JUMP JUMPDEST SWAP5 POP PUSH2 0x142E DUP4 PUSH2 0x13D2 JUMP JUMPDEST SWAP3 POP PUSH1 0x20 DUP11 ADD SWAP10 POP POP PUSH1 0x1 DUP2 ADD SWAP1 POP PUSH2 0x140A JUMP JUMPDEST POP DUP3 SWAP8 POP DUP8 SWAP6 POP POP POP POP POP POP SWAP3 SWAP2 POP POP JUMP JUMPDEST PUSH1 0x0 PUSH1 0x40 DUP3 ADD SWAP1 POP DUP2 DUP2 SUB PUSH1 0x0 DUP4 ADD MSTORE PUSH2 0x146E DUP2 DUP6 PUSH2 0x13DF JUMP JUMPDEST SWAP1 POP DUP2 DUP2 SUB PUSH1 0x20 DUP4 ADD MSTORE PUSH2 0x1482 DUP2 DUP5 PUSH2 0x13DF JUMP JUMPDEST SWAP1 POP SWAP4 SWAP3 POP POP POP JUMP JUMPDEST PUSH2 0x1494 DUP2 PUSH2 0x1235 JUMP JUMPDEST DUP2 EQ PUSH2 0x149F JUMPI PUSH1 0x0 DUP1 REVERT JUMPDEST POP JUMP JUMPDEST PUSH1 0x0 DUP2 CALLDATALOAD SWAP1 POP PUSH2 0x14B1 DUP2 PUSH2 0x148B JUMP JUMPDEST SWAP3 SWAP2 POP POP JUMP JUMPDEST PUSH1 0x0 PUSH1 0x20 DUP3 DUP5 SUB SLT ISZERO PUSH2 0x14CD JUMPI PUSH2 0x14CC PUSH2 0x1026 JUMP JUMPDEST JUMPDEST PUSH1 0x0 PUSH2 0x14DB DUP5 DUP3 DUP6 ADD PUSH2 0x14A2 JUMP JUMPDEST SWAP2 POP POP SWAP3 SWAP2 POP POP JUMP JUMPDEST PUSH1 0x0 DUP2 SWAP1 POP SWAP3 SWAP2 POP POP JUMP JUMPDEST DUP3 DUP2 DUP4 CALLDATACOPY PUSH1 0x0 DUP4 DUP4 ADD MSTORE POP POP POP JUMP JUMPDEST PUSH1 0x0 PUSH2 0x150A DUP4 DUP6 PUSH2 0x14E4 JUMP JUMPDEST SWAP4 POP PUSH2 0x1517 DUP4 DUP6 DUP5 PUSH2 0x14EF JUMP JUMPDEST DUP3 DUP5 ADD SWAP1 POP SWAP4 SWAP3 POP POP POP JUMP JUMPDEST PUSH1 0x0 PUSH2 0x1530 DUP3 DUP5 DUP7 PUSH2 0x14FE JUMP JUMPDEST SWAP2 POP DUP2 SWAP1 POP SWAP4 SWAP3 POP POP POP JUMP JUMPDEST PUSH32 0x4E487B7100000000000000000000000000000000000000000000000000000000 PUSH1 0x0 MSTORE PUSH1 0x22 PUSH1 0x4 MSTORE PUSH1 0x24 PUSH1 0x0 REVERT JUMPDEST PUSH1 0x0 PUSH1 0x2 DUP3 DIV SWAP1 POP PUSH1 0x1 DUP3 AND DUP1 PUSH2 0x1583 JUMPI PUSH1 0x7F DUP3 AND SWAP2 POP JUMPDEST PUSH1 0x20 DUP3 LT DUP2 SUB PUSH2 0x1596 JUMPI PUSH2 0x1595 PUSH2 0x153C JUMP JUMPDEST JUMPDEST POP SWAP2 SWAP1 POP JUMP JUMPDEST PUSH1 0x0 DUP2 SWAP1 POP SWAP2 SWAP1 POP JUMP JUMPDEST PUSH32 0x4E487B7100000000000000000000000000000000000000000000000000000000 PUSH1 0x0 MSTORE PUSH1 0x11 PUSH1 0x4 MSTORE PUSH1 0x24 PUSH1 0x0 REVERT JUMPDEST PUSH1 0x0 PUSH2 0x15E0 DUP3 PUSH2 0x159C JUMP JUMPDEST SWAP2 POP PUSH2 0x15EB DUP4 PUSH2 0x159C JUMP JUMPDEST SWAP3 POP DUP3 DUP3 SUB SWAP1 POP DUP2 DUP2 GT ISZERO PUSH2 0x1603 JUMPI PUSH2 0x1602 PUSH2 0x15A6 JUMP JUMPDEST JUMPDEST SWAP3 SWAP2 POP POP JUMP JUMPDEST PUSH32 0x4E487B7100000000000000000000000000000000000000000000000000000000 PUSH1 0x0 MSTORE PUSH1 0x32 PUSH1 0x4 MSTORE PUSH1 0x24 PUSH1 0x0 REVERT JUMPDEST PUSH32 0x4E487B7100000000000000000000000000000000000000000000000000000000 PUSH1 0x0 MSTORE PUSH1 0x41 PUSH1 0x4 MSTORE PUSH1 0x24 PUSH1 0x0 REVERT JUMPDEST PUSH1 0x0 DUP2 SWAP1 POP DUP2 PUSH1 0x0 MSTORE PUSH1 0x20 PUSH1 0x0 KECCAK256 SWAP1 POP SWAP2 SWAP1 POP JUMP JUMPDEST PUSH1 0x0 PUSH1 0x20 PUSH1 0x1F DUP4 ADD DIV SWAP1 POP SWAP2 SWAP1 POP JUMP JUMPDEST PUSH1 0x0 DUP3 DUP3 SHL SWAP1 POP SWAP3 SWAP2 POP POP JUMP JUMPDEST PUSH1 0x0 PUSH1 0x8 DUP4 MUL PUSH2 0x16C9 PUSH32 0xFFFFFFFFFFFFFFFFFFFFFFFFFFFFFFFFFFFFFFFFFFFFFFFFFFFFFFFFFFFFFFFF DUP3 PUSH2 0x168C JUMP JUMPDEST PUSH2 0x16D3 DUP7 DUP4 PUSH2 0x168C JUMP JUMPDEST SWAP6 POP DUP1 NOT DUP5 AND SWAP4 POP DUP1 DUP7 AND DUP5 OR SWAP3 POP POP POP SWAP4 SWAP3 POP POP POP JUMP JUMPDEST PUSH1 0x0 DUP2 SWAP1 POP SWAP2 SWAP1 POP JUMP JUMPDEST PUSH1 0x0 PUSH2 0x1710 PUSH2 0x170B PUSH2 0x1706 DUP5 PUSH2 0x159C JUMP JUMPDEST PUSH2 0x16EB JUMP JUMPDEST PUSH2 0x159C JUMP JUMPDEST SWAP1 POP SWAP2 SWAP1 POP JUMP JUMPDEST PUSH1 0x0 DUP2 SWAP1 POP SWAP2 SWAP1 POP JUMP JUMPDEST PUSH2 0x172A DUP4 PUSH2 0x16F5 JUMP JUMPDEST PUSH2 0x173E PUSH2 0x1736 DUP3 PUSH2 0x1717 JUMP JUMPDEST DUP5 DUP5 SLOAD PUSH2 0x1699 JUMP JUMPDEST DUP3 SSTORE POP POP POP POP JUMP JUMPDEST PUSH1 0x0 SWAP1 JUMP JUMPDEST PUSH2 0x1753 PUSH2 0x1746 JUMP JUMPDEST PUSH2 0x175E DUP2 DUP5 DUP5 PUSH2 0x1721 JUMP JUMPDEST POP POP POP JUMP JUMPDEST JUMPDEST DUP2 DUP2 LT ISZERO PUSH2 0x1782 JUMPI PUSH2 0x1777 PUSH1 0x0 DUP3 PUSH2 0x174B JUMP JUMPDEST PUSH1 0x1 DUP2 ADD SWAP1 POP PUSH2 0x1764 JUMP JUMPDEST POP POP JUMP JUMPDEST PUSH1 0x1F DUP3 GT ISZERO PUSH2 0x17C7 JUMPI PUSH2 0x1798 DUP2 PUSH2 0x1667 JUMP JUMPDEST PUSH2 0x17A1 DUP5 PUSH2 0x167C JUMP JUMPDEST DUP2 ADD PUSH1 0x20 DUP6 LT ISZERO PUSH2 0x17B0 JUMPI DUP2 SWAP1 POP JUMPDEST PUSH2 0x17C4 PUSH2 0x17BC DUP6 PUSH2 0x167C JUMP JUMPDEST DUP4 ADD DUP3 PUSH2 0x1763 JUMP JUMPDEST POP POP JUMPDEST POP POP POP JUMP JUMPDEST PUSH1 0x0 DUP3 DUP3 SHR SWAP1 POP SWAP3 SWAP2 POP POP JUMP JUMPDEST PUSH1 0x0 PUSH2 0x17EA PUSH1 0x0 NOT DUP5 PUSH1 0x8 MUL PUSH2 0x17CC JUMP JUMPDEST NOT DUP1 DUP4 AND SWAP2 POP POP SWAP3 SWAP2 POP POP JUMP JUMPDEST PUSH1 0x0 PUSH2 0x1803 DUP4 DUP4 PUSH2 0x17D9 JUMP JUMPDEST SWAP2 POP DUP3 PUSH1 0x2 MUL DUP3 OR SWAP1 POP SWAP3 SWAP2 POP POP JUMP JUMPDEST PUSH2 0x181C DUP3 PUSH2 0x1163 JUMP JUMPDEST PUSH8 0xFFFFFFFFFFFFFFFF DUP2 GT ISZERO PUSH2 0x1835 JUMPI PUSH2 0x1834 PUSH2 0x1638 JUMP JUMPDEST JUMPDEST PUSH2 0x183F DUP3 SLOAD PUSH2 0x156B JUMP JUMPDEST PUSH2 0x184A DUP3 DUP3 DUP6 PUSH2 0x1786 JUMP JUMPDEST PUSH1 0x0 PUSH1 0x20 SWAP1 POP PUSH1 0x1F DUP4 GT PUSH1 0x1 DUP2 EQ PUSH2 0x187D JUMPI PUSH1 0x0 DUP5 ISZERO PUSH2 0x186B JUMPI DUP3 DUP8 ADD MLOAD SWAP1 POP JUMPDEST PUSH2 0x1875 DUP6 DUP3 PUSH2 0x17F7 JUMP JUMPDEST DUP7 SSTORE POP PUSH2 0x18DD JUMP JUMPDEST PUSH1 0x1F NOT DUP5 AND PUSH2 0x188B DUP7 PUSH2 0x1667 JUMP JUMPDEST PUSH1 0x0 JUMPDEST DUP3 DUP2 LT ISZERO PUSH2 0x18B3 JUMPI DUP5 DUP10 ADD MLOAD DUP3 SSTORE PUSH1 0x1 DUP3 ADD SWAP2 POP PUSH1 0x20 DUP6 ADD SWAP5 POP PUSH1 0x20 DUP2 ADD SWAP1 POP PUSH2 0x188E JUMP JUMPDEST DUP7 DUP4 LT ISZERO PUSH2 0x18D0 JUMPI DUP5 DUP10 ADD MLOAD PUSH2 0x18CC PUSH1 0x1F DUP10 AND DUP3 PUSH2 0x17D9 JUMP JUMPDEST DUP4 SSTORE POP JUMPDEST PUSH1 0x1 PUSH1 0x2 DUP9 MUL ADD DUP9 SSTORE POP POP POP JUMPDEST POP POP POP POP POP POP JUMP JUMPDEST PUSH1 0x0 PUSH2 0x18F0 DUP3 PUSH2 0x1163 JUMP JUMPDEST PUSH2 0x18FA DUP2 DUP6 PUSH2 0x14E4 JUMP JUMPDEST SWAP4 POP PUSH2 0x190A DUP2 DUP6 PUSH1 0x20 DUP7 ADD PUSH2 0x117F JUMP JUMPDEST DUP1 DUP5 ADD SWAP2 POP POP SWAP3 SWAP2 POP POP JUMP JUMPDEST PUSH1 0x0 PUSH2 0x1922 DUP3 DUP5 PUSH2 0x18E5 JUMP JUMPDEST SWAP2 POP DUP2 SWAP1 POP SWAP3 SWAP2 POP POP JUMP JUMPDEST PUSH32 0x4E487B7100000000000000000000000000000000000000000000000000000000 PUSH1 0x0 MSTORE PUSH1 0x31 PUSH1 0x4 MSTORE PUSH1 0x24 PUSH1 0x0 REVERT JUMPDEST PUSH1 0x0 DUP2 SWAP1 POP SWAP3 SWAP2 POP POP JUMP JUMPDEST PUSH1 0x0 PUSH2 0x1973 DUP4 DUP6 PUSH2 0x195C JUMP JUMPDEST SWAP4 POP PUSH2 0x1980 DUP4 DUP6 DUP5 PUSH2 0x14EF JUMP JUMPDEST DUP3 DUP5 ADD SWAP1 POP SWAP4 SWAP3 POP POP POP JUMP JUMPDEST PUSH1 0x0 PUSH2 0x1999 DUP3 DUP5 DUP7 PUSH2 0x1967 JUMP JUMPDEST SWAP2 POP DUP2 SWAP1 POP SWAP4 SWAP3 POP POP POP JUMP JUMPDEST PUSH1 0x0 DUP2 SWAP1 POP DUP2 PUSH1 0x0 MSTORE PUSH1 0x20 PUSH1 0x0 KECCAK256 SWAP1 POP SWAP2 SWAP1 POP JUMP JUMPDEST PUSH1 0x0 DUP2 SLOAD PUSH2 0x19C7 DUP2 PUSH2 0x156B JUMP JUMPDEST PUSH2 0x19D1 DUP2 DUP7 PUSH2 0x195C JUMP JUMPDEST SWAP5 POP PUSH1 0x1 DUP3 AND PUSH1 0x0 DUP2 EQ PUSH2 0x19EC JUMPI PUSH1 0x1 DUP2 EQ PUSH2 0x1A01 JUMPI PUSH2 0x1A34 JUMP JUMPDEST PUSH1 0xFF NOT DUP4 AND DUP7 MSTORE DUP2 ISZERO ISZERO DUP3 MUL DUP7 ADD SWAP4 POP PUSH2 0x1A34 JUMP JUMPDEST PUSH2 0x1A0A DUP6 PUSH2 0x19A5 JUMP JUMPDEST PUSH1 0x0 JUMPDEST DUP4 DUP2 LT ISZERO PUSH2 0x1A2C JUMPI DUP2 SLOAD DUP2 DUP10 ADD MSTORE PUSH1 0x1 DUP3 ADD SWAP2 POP PUSH1 0x20 DUP2 ADD SWAP1 POP PUSH2 0x1A0D JUMP JUMPDEST DUP4 DUP9 ADD SWAP6 POP POP POP JUMPDEST POP POP POP SWAP3 SWAP2 POP POP JUMP JUMPDEST PUSH1 0x0 PUSH2 0x1A49 DUP3 DUP5 PUSH2 0x19BA JUMP JUMPDEST SWAP2 POP DUP2 SWAP1 POP SWAP3 SWAP2 POP POP JUMP JUMPDEST PUSH1 0x0 DUP3 SWAP1 POP SWAP3 SWAP2 POP POP JUMP JUMPDEST PUSH2 0x1A69 DUP4 DUP4 PUSH2 0x1A54 JUMP JUMPDEST PUSH8 0xFFFFFFFFFFFFFFFF DUP2 GT ISZERO PUSH2 0x1A82 JUMPI PUSH2 0x1A81 PUSH2 0x1638 JUMP JUMPDEST JUMPDEST PUSH2 0x1A8C DUP3 SLOAD PUSH2 0x156B JUMP JUMPDEST PUSH2 0x1A97 DUP3 DUP3 DUP6 PUSH2 0x1786 JUMP JUMPDEST PUSH1 0x0 PUSH1 0x1F DUP4 GT PUSH1 0x1 DUP2 EQ PUSH2 0x1AC6 JUMPI PUSH1 0x0 DUP5 ISZERO PUSH2 0x1AB4 JUMPI DUP3 DUP8 ADD CALLDATALOAD SWAP1 POP JUMPDEST PUSH2 0x1ABE DUP6 DUP3 PUSH2 0x17F7 JUMP JUMPDEST DUP7 SSTORE POP PUSH2 0x1B26 JUMP JUMPDEST PUSH1 0x1F NOT DUP5 AND PUSH2 0x1AD4 DUP7 PUSH2 0x1667 JUMP JUMPDEST PUSH1 0x0 JUMPDEST DUP3 DUP2 LT ISZERO PUSH2 0x1AFC JUMPI DUP5 DUP10 ADD CALLDATALOAD DUP3 SSTORE PUSH1 0x1 DUP3 ADD SWAP2 POP PUSH1 0x20 DUP6 ADD SWAP5 POP PUSH1 0x20 DUP2 ADD SWAP1 POP PUSH2 0x1AD7 JUMP JUMPDEST DUP7 DUP4 LT ISZERO PUSH2 0x1B19 JUMPI DUP5 DUP10 ADD CALLDATALOAD PUSH2 0x1B15 PUSH1 0x1F DUP10 AND DUP3 PUSH2 0x17D9 JUMP JUMPDEST DUP4 SSTORE POP JUMPDEST PUSH1 0x1 PUSH1 0x2 DUP9 MUL ADD DUP9 SSTORE POP POP POP JUMPDEST POP POP POP POP POP POP POP JUMP JUMPDEST PUSH1 0x0 PUSH2 0x1B3B DUP4 DUP6 PUSH2 0x116E JUMP JUMPDEST SWAP4 POP PUSH2 0x1B48 DUP4 DUP6 DUP5 PUSH2 0x14EF JUMP JUMPDEST PUSH2 0x1B51 DUP4 PUSH2 0x11A9 JUMP JUMPDEST DUP5 ADD SWAP1 POP SWAP4 SWAP3 POP POP POP JUMP JUMPDEST PUSH1 0x0 PUSH1 0x20 DUP3 ADD SWAP1 POP DUP2 DUP2 SUB PUSH1 0x0 DUP4 ADD MSTORE PUSH2 0x1B77 DUP2 DUP5 DUP7 PUSH2 0x1B2F JUMP JUMPDEST SWAP1 POP SWAP4 SWAP3 POP POP POP JUMP JUMPDEST PUSH1 0x0 DUP1 REVERT JUMPDEST PUSH1 0x0 DUP1 REVERT JUMPDEST PUSH1 0x0 DUP1 REVERT JUMPDEST PUSH1 0x0 DUP1 DUP4 CALLDATALOAD PUSH1 0x1 PUSH1 0x20 SUB DUP5 CALLDATASIZE SUB SUB DUP2 SLT PUSH2 0x1BAC JUMPI PUSH2 0x1BAB PUSH2 0x1B80 JUMP JUMPDEST JUMPDEST DUP1 DUP5 ADD SWAP3 POP DUP3 CALLDATALOAD SWAP2 POP PUSH8 0xFFFFFFFFFFFFFFFF DUP3 GT ISZERO PUSH2 0x1BCE JUMPI PUSH2 0x1BCD PUSH2 0x1B85 JUMP JUMPDEST JUMPDEST PUSH1 0x20 DUP4 ADD SWAP3 POP PUSH1 0x1 DUP3 MUL CALLDATASIZE SUB DUP4 SGT ISZERO PUSH2 0x1BEA JUMPI PUSH2 0x1BE9 PUSH2 0x1B8A JUMP JUMPDEST JUMPDEST POP SWAP3 POP SWAP3 SWAP1 POP JUMP JUMPDEST PUSH1 0x0 DUP2 SLOAD PUSH2 0x1BFF DUP2 PUSH2 0x156B JUMP JUMPDEST PUSH2 0x1C09 DUP2 DUP7 PUSH2 0x14E4 JUMP JUMPDEST SWAP5 POP PUSH1 0x1 DUP3 AND PUSH1 0x0 DUP2 EQ PUSH2 0x1C24 JUMPI PUSH1 0x1 DUP2 EQ PUSH2 0x1C39 JUMPI PUSH2 0x1C6C JUMP JUMPDEST PUSH1 0xFF NOT DUP4 AND DUP7 MSTORE DUP2 ISZERO ISZERO DUP3 MUL DUP7 ADD SWAP4 POP PUSH2 0x1C6C JUMP JUMPDEST PUSH2 0x1C42 DUP6 PUSH2 0x1667 JUMP JUMPDEST PUSH1 0x0 JUMPDEST DUP4 DUP2 LT ISZERO PUSH2 0x1C64 JUMPI DUP2 SLOAD DUP2 DUP10 ADD MSTORE PUSH1 0x1 DUP3 ADD SWAP2 POP PUSH1 0x20 DUP2 ADD SWAP1 POP PUSH2 0x1C45 JUMP JUMPDEST DUP4 DUP9 ADD SWAP6 POP POP POP JUMPDEST POP POP POP SWAP3 SWAP2 POP POP JUMP JUMPDEST PUSH1 0x0 PUSH2 0x1C81 DUP3 DUP5 PUSH2 0x1BF2 JUMP JUMPDEST SWAP2 POP DUP2 SWAP1 POP SWAP3 SWAP2 POP POP JUMP INVALID LOG2 PUSH5 0x6970667358 0x22 SLT KECCAK256 0xB2 0xE9 PUSH31 0xDA6375DF6A27B9087C1EE029C3A70FA1A4BFB19D2CD28AFE2D82E767EA6473 PUSH16 0x6C634300081B00330000000000000000 "},"methodIdentifiers":{"bulkAddEmployees(string[],string[])":"9e546add","companyId()":"7bc3a733","companyName()":"f5ec2eed","deleteEmployee(string)":"06227838","deployer()":"d5f39488","getAllEmployeeDetails()":"d093f9a4","getEmployeeSalary(string)":"a13e7ea7","owner()":"8da5cb5b","renounceOwnership()":"715018a6","setEmployeeSalary(string,string)":"2b77a999","transferOwnership(address)":"f2fde38b"}}}}}