{
  "_format": "hh-sol-artifact-1",
  "contractName": "BulkPayroll",
  "sourceName": "contracts/transfers-production/bulkPayroll.sol",
  "abi": [
    {
      "inputs": [],
      "name": "ReentrancyGuardReentrantCall",
      "type": "error"
    },
    {
      "inputs": [
        {
          "internalType": "address",
          "name": "token",
          "type": "address"
        }
      ],
      "name": "SafeERC20FailedOperation",
      "type": "error"
    },
    {
      "anonymous": false,
      "inputs": [
        {
          "indexed": true,
          "internalType": "address",
          "name": "sender",
          "type": "address"
        },
        {
          "indexed": true,
          "internalType": "address",
          "name": "token",
          "type": "address"
        },
        {
          "indexed": false,
          "internalType": "uint256",
          "name": "totalRecipients",
          "type": "uint256"
        },
        {
          "indexed": false,
          "internalType": "uint256",
          "name": "totalAmount",
          "type": "uint256"
        }
      ],
      "name": "BulkTransferExecuted",
      "type": "event"
    },
    {
      "inputs": [
        {
          "internalType": "address",
          "name": "token",
          "type": "address"
        },
        {
          "internalType": "address[]",
          "name": "recipients",
          "type": "address[]"
        },
        {
          "internalType": "uint256[]",
          "name": "amounts",
          "type": "uint256[]"
        }
      ],
      "name": "bulkTransfer",
      "outputs": [],
      "stateMutability": "payable",
      "type": "function"
    }
  ],
  "bytecode": "0x6080604052348015600f57600080fd5b5060016000819055506109a4806100276000396000f3fe60806040526004361061001e5760003560e01c8063e886dade14610023575b600080fd5b61003d600480360381019061003891906105ef565b61003f565b005b610047610358565b81819050848490501461008f576040517f08c379a000000000000000000000000000000000000000000000000000000000815260040161008690610707565b60405180910390fd5b600073ffffffffffffffffffffffffffffffffffffffff168573ffffffffffffffffffffffffffffffffffffffff160361024e576000805b83839050811015610106578383828181106100e5576100e4610727565b5b90506020020135826100f7919061078f565b915080806001019150506100c7565b508034101561014a576040517f08c379a00000000000000000000000000000000000000000000000000000000081526004016101419061080f565b60405180910390fd5b60005b858590508110156101ec5785858281811061016b5761016a610727565b5b9050602002016020810190610180919061082f565b73ffffffffffffffffffffffffffffffffffffffff166108fc8585848181106101ac576101ab610727565b5b905060200201359081150290604051600060405180830381858888f193505050501580156101de573d6000803e3d6000fd5b50808060010191505061014d565b5080341115610248573373ffffffffffffffffffffffffffffffffffffffff166108fc823461021b919061085c565b9081150290604051600060405180830381858888f19350505050158015610246573d6000803e3d6000fd5b505b506102de565b600085905060005b858590508110156102db576102ce3387878481811061027857610277610727565b5b905060200201602081019061028d919061082f565b8686858181106102a05761029f610727565b5b905060200201358573ffffffffffffffffffffffffffffffffffffffff1661039e909392919063ffffffff16565b8080600101915050610256565b50505b8473ffffffffffffffffffffffffffffffffffffffff163373ffffffffffffffffffffffffffffffffffffffff167fb08c62751f0c97f86ef37a4fa2bdb07aa8f67f0c26a5c87ed7973e85a4c6d19b8686905060006040516103419291906108e4565b60405180910390a3610351610420565b5050505050565b600260005403610394576040517f3ee5aeb500000000000000000000000000000000000000000000000000000000815260040160405180910390fd5b6002600081905550565b61041a848573ffffffffffffffffffffffffffffffffffffffff166323b872dd8686866040516024016103d39392919061091c565b604051602081830303815290604052915060e01b6020820180517bffffffffffffffffffffffffffffffffffffffffffffffffffffffff838183161783525050505061042a565b50505050565b6001600081905550565b600080602060008451602086016000885af18061044d576040513d6000823e3d81fd5b3d925060005191505060008214610468576001811415610484565b60008473ffffffffffffffffffffffffffffffffffffffff163b145b156104c657836040517f5274afe70000000000000000000000000000000000000000000000000000000081526004016104bd9190610953565b60405180910390fd5b50505050565b600080fd5b600080fd5b600073ffffffffffffffffffffffffffffffffffffffff82169050919050565b6000610501826104d6565b9050919050565b610511816104f6565b811461051c57600080fd5b50565b60008135905061052e81610508565b92915050565b600080fd5b600080fd5b600080fd5b60008083601f84011261055957610558610534565b5b8235905067ffffffffffffffff81111561057657610575610539565b5b6020830191508360208202830111156105925761059161053e565b5b9250929050565b60008083601f8401126105af576105ae610534565b5b8235905067ffffffffffffffff8111156105cc576105cb610539565b5b6020830191508360208202830111156105e8576105e761053e565b5b9250929050565b60008060008060006060868803121561060b5761060a6104cc565b5b60006106198882890161051f565b955050602086013567ffffffffffffffff81111561063a576106396104d1565b5b61064688828901610543565b9450945050604086013567ffffffffffffffff811115610669576106686104d1565b5b61067588828901610599565b92509250509295509295909350565b600082825260208201905092915050565b7f526563697069656e747320616e6420616d6f756e7473206c656e677468206d6960008201527f736d617463680000000000000000000000000000000000000000000000000000602082015250565b60006106f1602683610684565b91506106fc82610695565b604082019050919050565b60006020820190508181036000830152610720816106e4565b9050919050565b7f4e487b7100000000000000000000000000000000000000000000000000000000600052603260045260246000fd5b6000819050919050565b7f4e487b7100000000000000000000000000000000000000000000000000000000600052601160045260246000fd5b600061079a82610756565b91506107a583610756565b92508282019050808211156107bd576107bc610760565b5b92915050565b7f496e73756666696369656e74204554482073656e740000000000000000000000600082015250565b60006107f9601583610684565b9150610804826107c3565b602082019050919050565b60006020820190508181036000830152610828816107ec565b9050919050565b600060208284031215610845576108446104cc565b5b60006108538482850161051f565b91505092915050565b600061086782610756565b915061087283610756565b925082820390508181111561088a57610889610760565b5b92915050565b61089981610756565b82525050565b6000819050919050565b6000819050919050565b60006108ce6108c96108c48461089f565b6108a9565b610756565b9050919050565b6108de816108b3565b82525050565b60006040820190506108f96000830185610890565b61090660208301846108d5565b9392505050565b610916816104f6565b82525050565b6000606082019050610931600083018661090d565b61093e602083018561090d565b61094b6040830184610890565b949350505050565b6000602082019050610968600083018461090d565b9291505056fea264697066735822122068a5be3569495ca291fc478bce42f0458e3f03da9ee22794d897287652eb55a864736f6c634300081b0033",
  "linkReferences": {},
  "deployedLinkReferences": {}
}