{
  "_format": "hh-sol-artifact-1",
  "contractName": "CompanyPayroll",
  "sourceName": "contracts/employees-details/CompanyPayroll.sol",
  "abi": [
    {
      "inputs": [
        {
          "internalType": "string",
          "name": "_companyId",
          "type": "string"
        },
        {
          "internalType": "string",
          "name": "_companyName",
          "type": "string"
        }
      ],
      "stateMutability": "nonpayable",
      "type": "constructor"
    },
    {
      "inputs": [],
      "name": "CompanyIdEmpty",
      "type": "error"
    },
    {
      "inputs": [],
      "name": "CompanyNameEmpty",
      "type": "error"
    },
    {
      "inputs": [],
      "name": "EmployeeIdEmpty",
      "type": "error"
    },
    {
      "inputs": [],
      "name": "EmployeeNotFound",
      "type": "error"
    },
    {
      "inputs": [],
      "name": "MismatchedArrayLengths",
      "type": "error"
    },
    {
      "inputs": [
        {
          "internalType": "address",
          "name": "owner",
          "type": "address"
        }
      ],
      "name": "OwnableInvalidOwner",
      "type": "error"
    },
    {
      "inputs": [
        {
          "internalType": "address",
          "name": "account",
          "type": "address"
        }
      ],
      "name": "OwnableUnauthorizedAccount",
      "type": "error"
    },
    {
      "inputs": [],
      "name": "SalaryEmpty",
      "type": "error"
    },
    {
      "inputs": [],
      "name": "SameSalary",
      "type": "error"
    },
    {
      "anonymous": false,
      "inputs": [
        {
          "indexed": true,
          "internalType": "string",
          "name": "employeeId",
          "type": "string"
        }
      ],
      "name": "EmployeeDeleted",
      "type": "event"
    },
    {
      "anonymous": false,
      "inputs": [
        {
          "indexed": true,
          "internalType": "address",
          "name": "previousOwner",
          "type": "address"
        },
        {
          "indexed": true,
          "internalType": "address",
          "name": "newOwner",
          "type": "address"
        }
      ],
      "name": "OwnershipTransferred",
      "type": "event"
    },
    {
      "anonymous": false,
      "inputs": [
        {
          "indexed": true,
          "internalType": "string",
          "name": "employeeId",
          "type": "string"
        },
        {
          "indexed": false,
          "internalType": "string",
          "name": "salary",
          "type": "string"
        }
      ],
      "name": "SalarySet",
      "type": "event"
    },
    {
      "inputs": [
        {
          "internalType": "string[]",
          "name": "employeeIdsArray",
          "type": "string[]"
        },
        {
          "internalType": "string[]",
          "name": "salariesArray",
          "type": "string[]"
        }
      ],
      "name": "bulkAddEmployees",
      "outputs": [],
      "stateMutability": "nonpayable",
      "type": "function"
    },
    {
      "inputs": [],
      "name": "companyId",
      "outputs": [
        {
          "internalType": "string",
          "name": "",
          "type": "string"
        }
      ],
      "stateMutability": "view",
      "type": "function"
    },
    {
      "inputs": [],
      "name": "companyName",
      "outputs": [
        {
          "internalType": "string",
          "name": "",
          "type": "string"
        }
      ],
      "stateMutability": "view",
      "type": "function"
    },
    {
      "inputs": [
        {
          "internalType": "string",
          "name": "employeeId",
          "type": "string"
        }
      ],
      "name": "deleteEmployee",
      "outputs": [],
      "stateMutability": "nonpayable",
      "type": "function"
    },
    {
      "inputs": [],
      "name": "deployer",
      "outputs": [
        {
          "internalType": "address",
          "name": "",
          "type": "address"
        }
      ],
      "stateMutability": "view",
      "type": "function"
    },
    {
      "inputs": [],
      "name": "getAllEmployeeDetails",
      "outputs": [
        {
          "internalType": "string[]",
          "name": "",
          "type": "string[]"
        },
        {
          "internalType": "string[]",
          "name": "",
          "type": "string[]"
        }
      ],
      "stateMutability": "view",
      "type": "function"
    },
    {
      "inputs": [
        {
          "internalType": "string",
          "name": "employeeId",
          "type": "string"
        }
      ],
      "name": "getEmployeeSalary",
      "outputs": [
        {
          "internalType": "string",
          "name": "",
          "type": "string"
        }
      ],
      "stateMutability": "view",
      "type": "function"
    },
    {
      "inputs": [],
      "name": "owner",
      "outputs": [
        {
          "internalType": "address",
          "name": "",
          "type": "address"
        }
      ],
      "stateMutability": "view",
      "type": "function"
    },
    {
      "inputs": [],
      "name": "renounceOwnership",
      "outputs": [],
      "stateMutability": "nonpayable",
      "type": "function"
    },
    {
      "inputs": [
        {
          "internalType": "string",
          "name": "employeeId",
          "type": "string"
        },
        {
          "internalType": "string",
          "name": "salary",
          "type": "string"
        }
      ],
      "name": "setEmployeeSalary",
      "outputs": [],
      "stateMutability": "nonpayable",
      "type": "function"
    },
    {
      "inputs": [
        {
          "internalType": "address",
          "name": "newOwner",
          "type": "address"
        }
      ],
      "name": "transferOwnership",
      "outputs": [],
      "stateMutability": "nonpayable",
      "type": "function"
    }
  ],
  "bytecode": "0x60a060405234801561001057600080fd5b50604051612463380380612463833981810160405281019061003291906103bf565b33600073ffffffffffffffffffffffffffffffffffffffff168173ffffffffffffffffffffffffffffffffffffffff16036100a55760006040517f1e4fbdf700000000000000000000000000000000000000000000000000000000815260040161009c9190610478565b60405180910390fd5b6100b48161018660201b60201c565b5060008251036100f0576040517ff69b849900000000000000000000000000000000000000000000000000000000815260040160405180910390fd5b600081510361012b576040517f48ea997800000000000000000000000000000000000000000000000000000000815260040160405180910390fd5b816001908161013a91906106b4565b50806002908161014a91906106b4565b503373ffffffffffffffffffffffffffffffffffffffff1660808173ffffffffffffffffffffffffffffffffffffffff16815250505050610786565b60008060009054906101000a900473ffffffffffffffffffffffffffffffffffffffff169050816000806101000a81548173ffffffffffffffffffffffffffffffffffffffff021916908373ffffffffffffffffffffffffffffffffffffffff1602179055508173ffffffffffffffffffffffffffffffffffffffff168173ffffffffffffffffffffffffffffffffffffffff167f8be0079c531659141344cd1fd0a4f28419497f9722a3daafe3b4186f6b6457e060405160405180910390a35050565b6000604051905090565b600080fd5b600080fd5b600080fd5b600080fd5b6000601f19601f8301169050919050565b7f4e487b7100000000000000000000000000000000000000000000000000000000600052604160045260246000fd5b6102b182610268565b810181811067ffffffffffffffff821117156102d0576102cf610279565b5b80604052505050565b60006102e361024a565b90506102ef82826102a8565b919050565b600067ffffffffffffffff82111561030f5761030e610279565b5b61031882610268565b9050602081019050919050565b60005b83811015610343578082015181840152602081019050610328565b60008484015250505050565b600061036261035d846102f4565b6102d9565b90508281526020810184848401111561037e5761037d610263565b5b610389848285610325565b509392505050565b600082601f8301126103a6576103a561025e565b5b81516103b684826020860161034f565b91505092915050565b600080604083850312156103d6576103d5610254565b5b600083015167ffffffffffffffff8111156103f4576103f3610259565b5b61040085828601610391565b925050602083015167ffffffffffffffff81111561042157610420610259565b5b61042d85828601610391565b9150509250929050565b600073ffffffffffffffffffffffffffffffffffffffff82169050919050565b600061046282610437565b9050919050565b61047281610457565b82525050565b600060208201905061048d6000830184610469565b92915050565b600081519050919050565b7f4e487b7100000000000000000000000000000000000000000000000000000000600052602260045260246000fd5b600060028204905060018216806104e557607f821691505b6020821081036104f8576104f761049e565b5b50919050565b60008190508160005260206000209050919050565b60006020601f8301049050919050565b600082821b905092915050565b6000600883026105607fffffffffffffffffffffffffffffffffffffffffffffffffffffffffffffffff82610523565b61056a8683610523565b95508019841693508086168417925050509392505050565b6000819050919050565b6000819050919050565b60006105b16105ac6105a784610582565b61058c565b610582565b9050919050565b6000819050919050565b6105cb83610596565b6105df6105d7826105b8565b848454610530565b825550505050565b600090565b6105f46105e7565b6105ff8184846105c2565b505050565b5b81811015610623576106186000826105ec565b600181019050610605565b5050565b601f82111561066857610639816104fe565b61064284610513565b81016020851015610651578190505b61066561065d85610513565b830182610604565b50505b505050565b600082821c905092915050565b600061068b6000198460080261066d565b1980831691505092915050565b60006106a4838361067a565b9150826002028217905092915050565b6106bd82610493565b67ffffffffffffffff8111156106d6576106d5610279565b5b6106e082546104cd565b6106eb828285610627565b600060209050601f83116001811461071e576000841561070c578287015190505b6107168582610698565b86555061077e565b601f19841661072c866104fe565b60005b828110156107545784890151825560018201915060208501945060208101905061072f565b86831015610771578489015161076d601f89168261067a565b8355505b6001600288020188555050505b505050505050565b608051611cc26107a16000396000610d400152611cc26000f3fe608060405234801561001057600080fd5b50600436106100a95760003560e01c80639e546add116100715780639e546add1461012c578063a13e7ea714610148578063d093f9a414610178578063d5f3948814610197578063f2fde38b146101b5578063f5ec2eed146101d1576100a9565b806306227838146100ae5780632b77a999146100ca578063715018a6146100e65780637bc3a733146100f05780638da5cb5b1461010e575b600080fd5b6100c860048036038101906100c39190611095565b6101ef565b005b6100e460048036038101906100df91906110e2565b61049a565b005b6100ee6106c4565b005b6100f86106d8565b60405161010591906111f3565b60405180910390f35b610116610766565b6040516101239190611256565b60405180910390f35b610146600480360381019061014191906112c7565b61078f565b005b610162600480360381019061015d9190611095565b610a51565b60405161016f91906111f3565b60405180910390f35b610180610b04565b60405161018e929190611454565b60405180910390f35b61019f610d3e565b6040516101ac9190611256565b60405180910390f35b6101cf60048036038101906101ca91906114b7565b610d62565b005b6101d9610de8565b6040516101e691906111f3565b60405180910390f35b6101f7610e76565b60008282905003610234576040517f191e615e00000000000000000000000000000000000000000000000000000000815260040160405180910390fd5b600060038383604051610248929190611523565b908152602001604051809103902080546102619061156b565b90500361029a576040517fbae1574e00000000000000000000000000000000000000000000000000000000815260040160405180910390fd5b6000600483836040516102ae929190611523565b9081526020016040518091039020549050600060016005805490506102d391906115d5565b90506000600582815481106102eb576102ea611609565b5b9060005260206000200180546103009061156b565b80601f016020809104026020016040519081016040528092919081815260200182805461032c9061156b565b80156103795780601f1061034e57610100808354040283529160200191610379565b820191906000526020600020905b81548152906001019060200180831161035c57829003601f168201915b50505050509050806005848154811061039557610394611609565b5b9060005260206000200190816103ab9190611813565b50826004826040516103bd9190611916565b90815260200160405180910390208190555060058054806103e1576103e061192d565b5b6001900381819060005260206000200160006103fd9190610fc9565b905560038585604051610411929190611523565b9081526020016040518091039020600061042b9190610fc9565b6004858560405161043d929190611523565b908152602001604051809103902060009055848460405161045f929190611523565b60405180910390207fa7f06b86791087d7ae7bd9d2e2fedffa58872135f67198a92a67f6998ddd119860405160405180910390a25050505050565b6104a2610e76565b600084849050036104df576040517f191e615e00000000000000000000000000000000000000000000000000000000815260040160405180910390fd5b6000828290500361051c576040517f7940b75500000000000000000000000000000000000000000000000000000000815260040160405180910390fd5b818160405161052c92919061198c565b604051809103902060038585604051610546929190611523565b90815260200160405180910390206040516105619190611a3d565b6040518091039020036105a0576040517fd965276600000000000000000000000000000000000000000000000000000000815260040160405180910390fd5b6000600385856040516105b4929190611523565b908152602001604051809103902080546105cd9061156b565b90500361063d57600580549050600485856040516105ec929190611523565b908152602001604051809103902081905550600584849091806001815401808255809150506001900390600052602060002001600090919290919290919290919250918261063b929190611a5f565b505b818160038686604051610651929190611523565b9081526020016040518091039020918261066c929190611a5f565b50838360405161067d929190611523565b60405180910390207f381382d228906c8060faf0b64eb3b7332dcf10b67e09b1bd1027e9c0eead774783836040516106b6929190611b5c565b60405180910390a250505050565b6106cc610e76565b6106d66000610efd565b565b600180546106e59061156b565b80601f01602080910402602001604051908101604052809291908181526020018280546107119061156b565b801561075e5780601f106107335761010080835404028352916020019161075e565b820191906000526020600020905b81548152906001019060200180831161074157829003601f168201915b505050505081565b60008060009054906101000a900473ffffffffffffffffffffffffffffffffffffffff16905090565b610797610e76565b8181905084849050146107d6576040517f568efce200000000000000000000000000000000000000000000000000000000815260040160405180910390fd5b60005b84849050811015610a4a5760008585838181106107f9576107f8611609565b5b905060200281019061080b9190611b8f565b8080601f016020809104026020016040519081016040528093929190818152602001838380828437600081840152601f19601f820116905080830192505050505050509050600084848481811061086557610864611609565b5b90506020028101906108779190611b8f565b8080601f016020809104026020016040519081016040528093929190818152602001838380828437600081840152601f19601f82011690508083019250505050505050905060008251036108f7576040517f191e615e00000000000000000000000000000000000000000000000000000000815260040160405180910390fd5b6000815103610932576040517f7940b75500000000000000000000000000000000000000000000000000000000815260040160405180910390fd5b60006003836040516109449190611916565b9081526020016040518091039020805461095d9061156b565b9050036109c25760058054905060048360405161097a9190611916565b9081526020016040518091039020819055506005829080600181540180825580915050600190039060005260206000200160009091909190915090816109c09190611813565b505b806003836040516109d39190611916565b908152602001604051809103902090816109ed9190611813565b50816040516109fc9190611916565b60405180910390207f381382d228906c8060faf0b64eb3b7332dcf10b67e09b1bd1027e9c0eead774782604051610a3391906111f3565b60405180910390a2505080806001019150506107d9565b5050505050565b606060038383604051610a65929190611523565b90815260200160405180910390208054610a7e9061156b565b80601f0160208091040260200160405190810160405280929190818152602001828054610aaa9061156b565b8015610af75780601f10610acc57610100808354040283529160200191610af7565b820191906000526020600020905b815481529060010190602001808311610ada57829003601f168201915b5050505050905092915050565b6060806000600580549050905060008167ffffffffffffffff811115610b2d57610b2c611638565b5b604051908082528060200260200182016040528015610b6057816020015b6060815260200190600190039081610b4b5790505b50905060005b82811015610c5d57600360058281548110610b8457610b83611609565b5b90600052602060002001604051610b9b9190611c75565b90815260200160405180910390208054610bb49061156b565b80601f0160208091040260200160405190810160405280929190818152602001828054610be09061156b565b8015610c2d5780601f10610c0257610100808354040283529160200191610c2d565b820191906000526020600020905b815481529060010190602001808311610c1057829003601f168201915b5050505050828281518110610c4557610c44611609565b5b60200260200101819052508080600101915050610b66565b5060058181805480602002602001604051908101604052809291908181526020016000905b82821015610d2e578382906000526020600020018054610ca19061156b565b80601f0160208091040260200160405190810160405280929190818152602001828054610ccd9061156b565b8015610d1a5780601f10610cef57610100808354040283529160200191610d1a565b820191906000526020600020905b815481529060010190602001808311610cfd57829003601f168201915b505050505081526020019060010190610c82565b5050505091509350935050509091565b7f000000000000000000000000000000000000000000000000000000000000000081565b610d6a610e76565b600073ffffffffffffffffffffffffffffffffffffffff168173ffffffffffffffffffffffffffffffffffffffff1603610ddc5760006040517f1e4fbdf7000000000000000000000000000000000000000000000000000000008152600401610dd39190611256565b60405180910390fd5b610de581610efd565b50565b60028054610df59061156b565b80601f0160208091040260200160405190810160405280929190818152602001828054610e219061156b565b8015610e6e5780601f10610e4357610100808354040283529160200191610e6e565b820191906000526020600020905b815481529060010190602001808311610e5157829003601f168201915b505050505081565b610e7e610fc1565b73ffffffffffffffffffffffffffffffffffffffff16610e9c610766565b73ffffffffffffffffffffffffffffffffffffffff1614610efb57610ebf610fc1565b6040517f118cdaa7000000000000000000000000000000000000000000000000000000008152600401610ef29190611256565b60405180910390fd5b565b60008060009054906101000a900473ffffffffffffffffffffffffffffffffffffffff169050816000806101000a81548173ffffffffffffffffffffffffffffffffffffffff021916908373ffffffffffffffffffffffffffffffffffffffff1602179055508173ffffffffffffffffffffffffffffffffffffffff168173ffffffffffffffffffffffffffffffffffffffff167f8be0079c531659141344cd1fd0a4f28419497f9722a3daafe3b4186f6b6457e060405160405180910390a35050565b600033905090565b508054610fd59061156b565b6000825580601f10610fe75750611006565b601f0160209004906000526020600020908101906110059190611009565b5b50565b5b8082111561102257600081600090555060010161100a565b5090565b600080fd5b600080fd5b600080fd5b600080fd5b600080fd5b60008083601f84011261105557611054611030565b5b8235905067ffffffffffffffff81111561107257611071611035565b5b60208301915083600182028301111561108e5761108d61103a565b5b9250929050565b600080602083850312156110ac576110ab611026565b5b600083013567ffffffffffffffff8111156110ca576110c961102b565b5b6110d68582860161103f565b92509250509250929050565b600080600080604085870312156110fc576110fb611026565b5b600085013567ffffffffffffffff81111561111a5761111961102b565b5b6111268782880161103f565b9450945050602085013567ffffffffffffffff8111156111495761114861102b565b5b6111558782880161103f565b925092505092959194509250565b600081519050919050565b600082825260208201905092915050565b60005b8381101561119d578082015181840152602081019050611182565b60008484015250505050565b6000601f19601f8301169050919050565b60006111c582611163565b6111cf818561116e565b93506111df81856020860161117f565b6111e8816111a9565b840191505092915050565b6000602082019050818103600083015261120d81846111ba565b905092915050565b600073ffffffffffffffffffffffffffffffffffffffff82169050919050565b600061124082611215565b9050919050565b61125081611235565b82525050565b600060208201905061126b6000830184611247565b92915050565b60008083601f84011261128757611286611030565b5b8235905067ffffffffffffffff8111156112a4576112a3611035565b5b6020830191508360208202830111156112c0576112bf61103a565b5b9250929050565b600080600080604085870312156112e1576112e0611026565b5b600085013567ffffffffffffffff8111156112ff576112fe61102b565b5b61130b87828801611271565b9450945050602085013567ffffffffffffffff81111561132e5761132d61102b565b5b61133a87828801611271565b925092505092959194509250565b600081519050919050565b600082825260208201905092915050565b6000819050602082019050919050565b600082825260208201905092915050565b600061139082611163565b61139a8185611374565b93506113aa81856020860161117f565b6113b3816111a9565b840191505092915050565b60006113ca8383611385565b905092915050565b6000602082019050919050565b60006113ea82611348565b6113f48185611353565b93508360208202850161140685611364565b8060005b85811015611442578484038952815161142385826113be565b945061142e836113d2565b925060208a0199505060018101905061140a565b50829750879550505050505092915050565b6000604082019050818103600083015261146e81856113df565b9050818103602083015261148281846113df565b90509392505050565b61149481611235565b811461149f57600080fd5b50565b6000813590506114b18161148b565b92915050565b6000602082840312156114cd576114cc611026565b5b60006114db848285016114a2565b91505092915050565b600081905092915050565b82818337600083830152505050565b600061150a83856114e4565b93506115178385846114ef565b82840190509392505050565b60006115308284866114fe565b91508190509392505050565b7f4e487b7100000000000000000000000000000000000000000000000000000000600052602260045260246000fd5b6000600282049050600182168061158357607f821691505b6020821081036115965761159561153c565b5b50919050565b6000819050919050565b7f4e487b7100000000000000000000000000000000000000000000000000000000600052601160045260246000fd5b60006115e08261159c565b91506115eb8361159c565b9250828203905081811115611603576116026115a6565b5b92915050565b7f4e487b7100000000000000000000000000000000000000000000000000000000600052603260045260246000fd5b7f4e487b7100000000000000000000000000000000000000000000000000000000600052604160045260246000fd5b60008190508160005260206000209050919050565b60006020601f8301049050919050565b600082821b905092915050565b6000600883026116c97fffffffffffffffffffffffffffffffffffffffffffffffffffffffffffffffff8261168c565b6116d3868361168c565b95508019841693508086168417925050509392505050565b6000819050919050565b600061171061170b6117068461159c565b6116eb565b61159c565b9050919050565b6000819050919050565b61172a836116f5565b61173e61173682611717565b848454611699565b825550505050565b600090565b611753611746565b61175e818484611721565b505050565b5b818110156117825761177760008261174b565b600181019050611764565b5050565b601f8211156117c75761179881611667565b6117a18461167c565b810160208510156117b0578190505b6117c46117bc8561167c565b830182611763565b50505b505050565b600082821c905092915050565b60006117ea600019846008026117cc565b1980831691505092915050565b600061180383836117d9565b9150826002028217905092915050565b61181c82611163565b67ffffffffffffffff81111561183557611834611638565b5b61183f825461156b565b61184a828285611786565b600060209050601f83116001811461187d576000841561186b578287015190505b61187585826117f7565b8655506118dd565b601f19841661188b86611667565b60005b828110156118b35784890151825560018201915060208501945060208101905061188e565b868310156118d057848901516118cc601f8916826117d9565b8355505b6001600288020188555050505b505050505050565b60006118f082611163565b6118fa81856114e4565b935061190a81856020860161117f565b80840191505092915050565b600061192282846118e5565b915081905092915050565b7f4e487b7100000000000000000000000000000000000000000000000000000000600052603160045260246000fd5b600081905092915050565b6000611973838561195c565b93506119808385846114ef565b82840190509392505050565b6000611999828486611967565b91508190509392505050565b60008190508160005260206000209050919050565b600081546119c78161156b565b6119d1818661195c565b945060018216600081146119ec5760018114611a0157611a34565b60ff1983168652811515820286019350611a34565b611a0a856119a5565b60005b83811015611a2c57815481890152600182019150602081019050611a0d565b838801955050505b50505092915050565b6000611a4982846119ba565b915081905092915050565b600082905092915050565b611a698383611a54565b67ffffffffffffffff811115611a8257611a81611638565b5b611a8c825461156b565b611a97828285611786565b6000601f831160018114611ac65760008415611ab4578287013590505b611abe85826117f7565b865550611b26565b601f198416611ad486611667565b60005b82811015611afc57848901358255600182019150602085019450602081019050611ad7565b86831015611b195784890135611b15601f8916826117d9565b8355505b6001600288020188555050505b50505050505050565b6000611b3b838561116e565b9350611b488385846114ef565b611b51836111a9565b840190509392505050565b60006020820190508181036000830152611b77818486611b2f565b90509392505050565b600080fd5b600080fd5b600080fd5b60008083356001602003843603038112611bac57611bab611b80565b5b80840192508235915067ffffffffffffffff821115611bce57611bcd611b85565b5b602083019250600182023603831315611bea57611be9611b8a565b5b509250929050565b60008154611bff8161156b565b611c0981866114e4565b94506001821660008114611c245760018114611c3957611c6c565b60ff1983168652811515820286019350611c6c565b611c4285611667565b60005b83811015611c6457815481890152600182019150602081019050611c45565b838801955050505b50505092915050565b6000611c818284611bf2565b91508190509291505056fea2646970667358221220b2e97eda6375df6a27b9087c1ee029c3a70fa1a4bfb19d2cd28afe2d82e767ea64736f6c634300081b0033",
  "linkReferences": {},
  "deployedLinkReferences": {}
}