{
  "_format": "hh-sol-artifact-1",
  "contractName": "CompanyPayroll",
  "sourceName": "contracts/employees-details/CompanyPayroll.sol",
  "abi": [
    {
      "inputs": [
        {
          "internalType": "bytes32",
          "name": "_companyId",
          "type": "bytes32"
        },
        {
          "internalType": "string",
          "name": "_companyName",
          "type": "string"
        }
      ],
      "stateMutability": "nonpayable",
      "type": "constructor"
    },
    {
      "inputs": [],
      "name": "CompanyIdZero",
      "type": "error"
    },
    {
      "inputs": [],
      "name": "CompanyNameEmpty",
      "type": "error"
    },
    {
      "inputs": [],
      "name": "EmployeeIdEmpty",
      "type": "error"
    },
    {
      "inputs": [],
      "name": "EmployeeNotFound",
      "type": "error"
    },
    {
      "inputs": [
        {
          "internalType": "address",
          "name": "owner",
          "type": "address"
        }
      ],
      "name": "OwnableInvalidOwner",
      "type": "error"
    },
    {
      "inputs": [
        {
          "internalType": "address",
          "name": "account",
          "type": "address"
        }
      ],
      "name": "OwnableUnauthorizedAccount",
      "type": "error"
    },
    {
      "inputs": [],
      "name": "SalaryEmpty",
      "type": "error"
    },
    {
      "inputs": [],
      "name": "SameSalary",
      "type": "error"
    },
    {
      "anonymous": false,
      "inputs": [
        {
          "indexed": true,
          "internalType": "string",
          "name": "employeeId",
          "type": "string"
        }
      ],
      "name": "EmployeeDeleted",
      "type": "event"
    },
    {
      "anonymous": false,
      "inputs": [
        {
          "indexed": true,
          "internalType": "address",
          "name": "previousOwner",
          "type": "address"
        },
        {
          "indexed": true,
          "internalType": "address",
          "name": "newOwner",
          "type": "address"
        }
      ],
      "name": "OwnershipTransferred",
      "type": "event"
    },
    {
      "anonymous": false,
      "inputs": [
        {
          "indexed": true,
          "internalType": "string",
          "name": "employeeId",
          "type": "string"
        },
        {
          "indexed": false,
          "internalType": "string",
          "name": "salary",
          "type": "string"
        }
      ],
      "name": "SalarySet",
      "type": "event"
    },
    {
      "inputs": [],
      "name": "companyId",
      "outputs": [
        {
          "internalType": "bytes32",
          "name": "",
          "type": "bytes32"
        }
      ],
      "stateMutability": "view",
      "type": "function"
    },
    {
      "inputs": [],
      "name": "companyName",
      "outputs": [
        {
          "internalType": "string",
          "name": "",
          "type": "string"
        }
      ],
      "stateMutability": "view",
      "type": "function"
    },
    {
      "inputs": [
        {
          "internalType": "string",
          "name": "employeeId",
          "type": "string"
        }
      ],
      "name": "deleteEmployee",
      "outputs": [],
      "stateMutability": "nonpayable",
      "type": "function"
    },
    {
      "inputs": [],
      "name": "deployer",
      "outputs": [
        {
          "internalType": "address",
          "name": "",
          "type": "address"
        }
      ],
      "stateMutability": "view",
      "type": "function"
    },
    {
      "inputs": [
        {
          "internalType": "string",
          "name": "",
          "type": "string"
        }
      ],
      "name": "employeeSalaries",
      "outputs": [
        {
          "internalType": "string",
          "name": "",
          "type": "string"
        }
      ],
      "stateMutability": "view",
      "type": "function"
    },
    {
      "inputs": [],
      "name": "getAllEmployeeDetails",
      "outputs": [
        {
          "internalType": "string[]",
          "name": "",
          "type": "string[]"
        },
        {
          "internalType": "string[]",
          "name": "",
          "type": "string[]"
        }
      ],
      "stateMutability": "view",
      "type": "function"
    },
    {
      "inputs": [
        {
          "internalType": "string",
          "name": "employeeId",
          "type": "string"
        }
      ],
      "name": "getEmployeeSalary",
      "outputs": [
        {
          "internalType": "string",
          "name": "",
          "type": "string"
        }
      ],
      "stateMutability": "view",
      "type": "function"
    },
    {
      "inputs": [],
      "name": "owner",
      "outputs": [
        {
          "internalType": "address",
          "name": "",
          "type": "address"
        }
      ],
      "stateMutability": "view",
      "type": "function"
    },
    {
      "inputs": [],
      "name": "renounceOwnership",
      "outputs": [],
      "stateMutability": "nonpayable",
      "type": "function"
    },
    {
      "inputs": [
        {
          "internalType": "string",
          "name": "employeeId",
          "type": "string"
        },
        {
          "internalType": "string",
          "name": "salary",
          "type": "string"
        }
      ],
      "name": "setEmployeeSalary",
      "outputs": [],
      "stateMutability": "nonpayable",
      "type": "function"
    },
    {
      "inputs": [
        {
          "internalType": "address",
          "name": "newOwner",
          "type": "address"
        }
      ],
      "name": "transferOwnership",
      "outputs": [],
      "stateMutability": "nonpayable",
      "type": "function"
    }
  ],
  "bytecode": "0x60c060405234801561001057600080fd5b5060405161218c38038061218c833981810160405281019061003291906103ee565b33600073ffffffffffffffffffffffffffffffffffffffff168173ffffffffffffffffffffffffffffffffffffffff16036100a55760006040517f1e4fbdf700000000000000000000000000000000000000000000000000000000815260040161009c919061048b565b60405180910390fd5b6100b48161017f60201b60201c565b506000801b82036100f1576040517f8df9d68f00000000000000000000000000000000000000000000000000000000815260040160405180910390fd5b600081510361012c576040517f48ea997800000000000000000000000000000000000000000000000000000000815260040160405180910390fd5b8160808181525050806001908161014391906106c7565b503373ffffffffffffffffffffffffffffffffffffffff1660a08173ffffffffffffffffffffffffffffffffffffffff16815250505050610799565b60008060009054906101000a900473ffffffffffffffffffffffffffffffffffffffff169050816000806101000a81548173ffffffffffffffffffffffffffffffffffffffff021916908373ffffffffffffffffffffffffffffffffffffffff1602179055508173ffffffffffffffffffffffffffffffffffffffff168173ffffffffffffffffffffffffffffffffffffffff167f8be0079c531659141344cd1fd0a4f28419497f9722a3daafe3b4186f6b6457e060405160405180910390a35050565b6000604051905090565b600080fd5b600080fd5b6000819050919050565b61026a81610257565b811461027557600080fd5b50565b60008151905061028781610261565b92915050565b600080fd5b600080fd5b6000601f19601f8301169050919050565b7f4e487b7100000000000000000000000000000000000000000000000000000000600052604160045260246000fd5b6102e082610297565b810181811067ffffffffffffffff821117156102ff576102fe6102a8565b5b80604052505050565b6000610312610243565b905061031e82826102d7565b919050565b600067ffffffffffffffff82111561033e5761033d6102a8565b5b61034782610297565b9050602081019050919050565b60005b83811015610372578082015181840152602081019050610357565b60008484015250505050565b600061039161038c84610323565b610308565b9050828152602081018484840111156103ad576103ac610292565b5b6103b8848285610354565b509392505050565b600082601f8301126103d5576103d461028d565b5b81516103e584826020860161037e565b91505092915050565b600080604083850312156104055761040461024d565b5b600061041385828601610278565b925050602083015167ffffffffffffffff81111561043457610433610252565b5b610440858286016103c0565b9150509250929050565b600073ffffffffffffffffffffffffffffffffffffffff82169050919050565b60006104758261044a565b9050919050565b6104858161046a565b82525050565b60006020820190506104a0600083018461047c565b92915050565b600081519050919050565b7f4e487b7100000000000000000000000000000000000000000000000000000000600052602260045260246000fd5b600060028204905060018216806104f857607f821691505b60208210810361050b5761050a6104b1565b5b50919050565b60008190508160005260206000209050919050565b60006020601f8301049050919050565b600082821b905092915050565b6000600883026105737fffffffffffffffffffffffffffffffffffffffffffffffffffffffffffffffff82610536565b61057d8683610536565b95508019841693508086168417925050509392505050565b6000819050919050565b6000819050919050565b60006105c46105bf6105ba84610595565b61059f565b610595565b9050919050565b6000819050919050565b6105de836105a9565b6105f26105ea826105cb565b848454610543565b825550505050565b600090565b6106076105fa565b6106128184846105d5565b505050565b5b818110156106365761062b6000826105ff565b600181019050610618565b5050565b601f82111561067b5761064c81610511565b61065584610526565b81016020851015610664578190505b61067861067085610526565b830182610617565b50505b505050565b600082821c905092915050565b600061069e60001984600802610680565b1980831691505092915050565b60006106b7838361068d565b9150826002028217905092915050565b6106d0826104a6565b67ffffffffffffffff8111156106e9576106e86102a8565b5b6106f382546104e0565b6106fe82828561063a565b600060209050601f831160018114610731576000841561071f578287015190505b61072985826106ab565b865550610791565b601f19841661073f86610511565b60005b8281101561076757848901518255600182019150602085019450602081019050610742565b868310156107845784890151610780601f89168261068d565b8355505b6001600288020188555050505b505050505050565b60805160a0516119ce6107be6000396000610ad30152600061079401526119ce6000f3fe608060405234801561001057600080fd5b50600436106100a95760003560e01c80638da5cb5b116100715780638da5cb5b1461013e578063a13e7ea71461015c578063d093f9a41461018c578063d5f39488146101ab578063f2fde38b146101c9578063f5ec2eed146101e5576100a9565b806306227838146100ae5780632b77a999146100ca5780636e468c5f146100e6578063715018a6146101165780637bc3a73314610120575b600080fd5b6100c860048036038101906100c39190610e32565b610203565b005b6100e460048036038101906100df9190610e7f565b610442565b005b61010060048036038101906100fb9190611041565b6106c8565b60405161010d9190611109565b60405180910390f35b61011e61077e565b005b610128610792565b6040516101359190611144565b60405180910390f35b6101466107b6565b60405161015391906111a0565b60405180910390f35b61017660048036038101906101719190610e32565b6107df565b6040516101839190611109565b60405180910390f35b610194610892565b6040516101a29291906112c7565b60405180910390f35b6101b3610ad1565b6040516101c091906111a0565b60405180910390f35b6101e360048036038101906101de919061132a565b610af5565b005b6101ed610b7b565b6040516101fa9190611109565b60405180910390f35b61020b610c09565b60008282905003610248576040517f191e615e00000000000000000000000000000000000000000000000000000000815260040160405180910390fd5b60006002838360405161025c929190611387565b90815260200160405180910390208054610275906113cf565b9050036102ae576040517fbae1574e00000000000000000000000000000000000000000000000000000000815260040160405180910390fd5b600282826040516102c0929190611387565b908152602001604051809103902060006102da9190610d5c565b6000600380549050905060005b818110156103f8578383604051602001610302929190611387565b604051602081830303815290604052805190602001206003828154811061032c5761032b611400565b5b9060005260206000200160405160200161034691906114c7565b60405160208183030381529060405280519060200120036103eb5760036001836103709190611517565b8154811061038157610380611400565b5b906000526020600020016003828154811061039f5761039e611400565b5b9060005260206000200190816103b5919061170d565b5060038054806103c8576103c76117f5565b5b6001900381819060005260206000200160006103e49190610d5c565b90556103f8565b80806001019150506102e7565b508282604051610409929190611387565b60405180910390207fa7f06b86791087d7ae7bd9d2e2fedffa58872135f67198a92a67f6998ddd119860405160405180910390a2505050565b61044a610c09565b60008484905003610487576040517f191e615e00000000000000000000000000000000000000000000000000000000815260040160405180910390fd5b600082829050036104c4576040517f7940b75500000000000000000000000000000000000000000000000000000000815260040160405180910390fd5b6000600285856040516104d8929190611387565b908152602001604051809103902080546104f1906113cf565b80601f016020809104026020016040519081016040528092919081815260200182805461051d906113cf565b801561056a5780601f1061053f5761010080835404028352916020019161056a565b820191906000526020600020905b81548152906001019060200180831161054d57829003601f168201915b505050505090508282604051602001610584929190611387565b60405160208183030381529060405280519060200120816040516020016105ab9190611855565b60405160208183030381529060405280519060200120036105f8576040517fd965276600000000000000000000000000000000000000000000000000000000815260040160405180910390fd5b600081510361064057600385859091806001815401808255809150506001900390600052602060002001600090919290919290919290919250918261063e929190611877565b505b828260028787604051610654929190611387565b9081526020016040518091039020918261066f929190611877565b508484604051610680929190611387565b60405180910390207f381382d228906c8060faf0b64eb3b7332dcf10b67e09b1bd1027e9c0eead774784846040516106b9929190611974565b60405180910390a25050505050565b60028180516020810182018051848252602083016020850120818352809550505050505060009150905080546106fd906113cf565b80601f0160208091040260200160405190810160405280929190818152602001828054610729906113cf565b80156107765780601f1061074b57610100808354040283529160200191610776565b820191906000526020600020905b81548152906001019060200180831161075957829003601f168201915b505050505081565b610786610c09565b6107906000610c90565b565b7f000000000000000000000000000000000000000000000000000000000000000081565b60008060009054906101000a900473ffffffffffffffffffffffffffffffffffffffff16905090565b6060600283836040516107f3929190611387565b9081526020016040518091039020805461080c906113cf565b80601f0160208091040260200160405190810160405280929190818152602001828054610838906113cf565b80156108855780601f1061085a57610100808354040283529160200191610885565b820191906000526020600020905b81548152906001019060200180831161086857829003601f168201915b5050505050905092915050565b606080600060038054905067ffffffffffffffff8111156108b6576108b5610f16565b5b6040519080825280602002602001820160405280156108e957816020015b60608152602001906001900390816108d45790505b5090506000600380549050905060005b818110156109f05760026003828154811061091757610916611400565b5b9060005260206000200160405161092e91906114c7565b90815260200160405180910390208054610947906113cf565b80601f0160208091040260200160405190810160405280929190818152602001828054610973906113cf565b80156109c05780601f10610995576101008083540402835291602001916109c0565b820191906000526020600020905b8154815290600101906020018083116109a357829003601f168201915b50505050508382815181106109d8576109d7611400565b5b602002602001018190525080806001019150506108f9565b5060038281805480602002602001604051908101604052809291908181526020016000905b82821015610ac1578382906000526020600020018054610a34906113cf565b80601f0160208091040260200160405190810160405280929190818152602001828054610a60906113cf565b8015610aad5780601f10610a8257610100808354040283529160200191610aad565b820191906000526020600020905b815481529060010190602001808311610a9057829003601f168201915b505050505081526020019060010190610a15565b5050505091509350935050509091565b7f000000000000000000000000000000000000000000000000000000000000000081565b610afd610c09565b600073ffffffffffffffffffffffffffffffffffffffff168173ffffffffffffffffffffffffffffffffffffffff1603610b6f5760006040517f1e4fbdf7000000000000000000000000000000000000000000000000000000008152600401610b6691906111a0565b60405180910390fd5b610b7881610c90565b50565b60018054610b88906113cf565b80601f0160208091040260200160405190810160405280929190818152602001828054610bb4906113cf565b8015610c015780601f10610bd657610100808354040283529160200191610c01565b820191906000526020600020905b815481529060010190602001808311610be457829003601f168201915b505050505081565b610c11610d54565b73ffffffffffffffffffffffffffffffffffffffff16610c2f6107b6565b73ffffffffffffffffffffffffffffffffffffffff1614610c8e57610c52610d54565b6040517f118cdaa7000000000000000000000000000000000000000000000000000000008152600401610c8591906111a0565b60405180910390fd5b565b60008060009054906101000a900473ffffffffffffffffffffffffffffffffffffffff169050816000806101000a81548173ffffffffffffffffffffffffffffffffffffffff021916908373ffffffffffffffffffffffffffffffffffffffff1602179055508173ffffffffffffffffffffffffffffffffffffffff168173ffffffffffffffffffffffffffffffffffffffff167f8be0079c531659141344cd1fd0a4f28419497f9722a3daafe3b4186f6b6457e060405160405180910390a35050565b600033905090565b508054610d68906113cf565b6000825580601f10610d7a5750610d99565b601f016020900490600052602060002090810190610d989190610d9c565b5b50565b5b80821115610db5576000816000905550600101610d9d565b5090565b6000604051905090565b600080fd5b600080fd5b600080fd5b600080fd5b600080fd5b60008083601f840112610df257610df1610dcd565b5b8235905067ffffffffffffffff811115610e0f57610e0e610dd2565b5b602083019150836001820283011115610e2b57610e2a610dd7565b5b9250929050565b60008060208385031215610e4957610e48610dc3565b5b600083013567ffffffffffffffff811115610e6757610e66610dc8565b5b610e7385828601610ddc565b92509250509250929050565b60008060008060408587031215610e9957610e98610dc3565b5b600085013567ffffffffffffffff811115610eb757610eb6610dc8565b5b610ec387828801610ddc565b9450945050602085013567ffffffffffffffff811115610ee657610ee5610dc8565b5b610ef287828801610ddc565b925092505092959194509250565b600080fd5b6000601f19601f8301169050919050565b7f4e487b7100000000000000000000000000000000000000000000000000000000600052604160045260246000fd5b610f4e82610f05565b810181811067ffffffffffffffff82111715610f6d57610f6c610f16565b5b80604052505050565b6000610f80610db9565b9050610f8c8282610f45565b919050565b600067ffffffffffffffff821115610fac57610fab610f16565b5b610fb582610f05565b9050602081019050919050565b82818337600083830152505050565b6000610fe4610fdf84610f91565b610f76565b90508281526020810184848401111561100057610fff610f00565b5b61100b848285610fc2565b509392505050565b600082601f83011261102857611027610dcd565b5b8135611038848260208601610fd1565b91505092915050565b60006020828403121561105757611056610dc3565b5b600082013567ffffffffffffffff81111561107557611074610dc8565b5b61108184828501611013565b91505092915050565b600081519050919050565b600082825260208201905092915050565b60005b838110156110c45780820151818401526020810190506110a9565b60008484015250505050565b60006110db8261108a565b6110e58185611095565b93506110f58185602086016110a6565b6110fe81610f05565b840191505092915050565b6000602082019050818103600083015261112381846110d0565b905092915050565b6000819050919050565b61113e8161112b565b82525050565b60006020820190506111596000830184611135565b92915050565b600073ffffffffffffffffffffffffffffffffffffffff82169050919050565b600061118a8261115f565b9050919050565b61119a8161117f565b82525050565b60006020820190506111b56000830184611191565b92915050565b600081519050919050565b600082825260208201905092915050565b6000819050602082019050919050565b600082825260208201905092915050565b60006112038261108a565b61120d81856111e7565b935061121d8185602086016110a6565b61122681610f05565b840191505092915050565b600061123d83836111f8565b905092915050565b6000602082019050919050565b600061125d826111bb565b61126781856111c6565b935083602082028501611279856111d7565b8060005b858110156112b557848403895281516112968582611231565b94506112a183611245565b925060208a0199505060018101905061127d565b50829750879550505050505092915050565b600060408201905081810360008301526112e18185611252565b905081810360208301526112f58184611252565b90509392505050565b6113078161117f565b811461131257600080fd5b50565b600081359050611324816112fe565b92915050565b6000602082840312156113405761133f610dc3565b5b600061134e84828501611315565b91505092915050565b600081905092915050565b600061136e8385611357565b935061137b838584610fc2565b82840190509392505050565b6000611394828486611362565b91508190509392505050565b7f4e487b7100000000000000000000000000000000000000000000000000000000600052602260045260246000fd5b600060028204905060018216806113e757607f821691505b6020821081036113fa576113f96113a0565b5b50919050565b7f4e487b7100000000000000000000000000000000000000000000000000000000600052603260045260246000fd5b60008190508160005260206000209050919050565b60008154611451816113cf565b61145b8186611357565b94506001821660008114611476576001811461148b576114be565b60ff19831686528115158202860193506114be565b6114948561142f565b60005b838110156114b657815481890152600182019150602081019050611497565b838801955050505b50505092915050565b60006114d38284611444565b915081905092915050565b6000819050919050565b7f4e487b7100000000000000000000000000000000000000000000000000000000600052601160045260246000fd5b6000611522826114de565b915061152d836114de565b9250828203905081811115611545576115446114e8565b5b92915050565b60008154905061155a816113cf565b9050919050565b60008190508160005260206000209050919050565b60006020601f8301049050919050565b600082821b905092915050565b6000600883026115c37fffffffffffffffffffffffffffffffffffffffffffffffffffffffffffffffff82611586565b6115cd8683611586565b95508019841693508086168417925050509392505050565b6000819050919050565b600061160a611605611600846114de565b6115e5565b6114de565b9050919050565b6000819050919050565b611624836115ef565b61163861163082611611565b848454611593565b825550505050565b600090565b61164d611640565b61165881848461161b565b505050565b5b8181101561167c57611671600082611645565b60018101905061165e565b5050565b601f8211156116c1576116928161142f565b61169b84611576565b810160208510156116aa578190505b6116be6116b685611576565b83018261165d565b50505b505050565b600082821c905092915050565b60006116e4600019846008026116c6565b1980831691505092915050565b60006116fd83836116d3565b9150826002028217905092915050565b81810361171b5750506117f3565b6117248261154b565b67ffffffffffffffff81111561173d5761173c610f16565b5b61174782546113cf565b611752828285611680565b6000601f831160018114611781576000841561176f578287015490505b61177985826116f1565b8655506117ec565b601f19841661178f87611561565b965061179a8661142f565b60005b828110156117c25784890154825560018201915060018501945060208101905061179d565b868310156117df57848901546117db601f8916826116d3565b8355505b6001600288020188555050505b5050505050505b565b7f4e487b7100000000000000000000000000000000000000000000000000000000600052603160045260246000fd5b600061182f8261108a565b6118398185611357565b93506118498185602086016110a6565b80840191505092915050565b60006118618284611824565b915081905092915050565b600082905092915050565b611881838361186c565b67ffffffffffffffff81111561189a57611899610f16565b5b6118a482546113cf565b6118af828285611680565b6000601f8311600181146118de57600084156118cc578287013590505b6118d685826116f1565b86555061193e565b601f1984166118ec8661142f565b60005b82811015611914578489013582556001820191506020850194506020810190506118ef565b86831015611931578489013561192d601f8916826116d3565b8355505b6001600288020188555050505b50505050505050565b60006119538385611095565b9350611960838584610fc2565b61196983610f05565b840190509392505050565b6000602082019050818103600083015261198f818486611947565b9050939250505056fea264697066735822122001e35f7f0c8c59786776c591f40b2fda04f24fde15c1d198fdfbe4e16e314e0864736f6c634300081b0033",
  "linkReferences": {},
  "deployedLinkReferences": {}
}