{
  "_format": "hh-sol-artifact-1",
  "contractName": "CompanyPayroll",
  "sourceName": "contracts/employees-details/CompanyPayroll.sol",
  "abi": [
    {
      "inputs": [
        {
          "internalType": "bytes32",
          "name": "_companyId",
          "type": "bytes32"
        },
        {
          "internalType": "string",
          "name": "_companyName",
          "type": "string"
        }
      ],
      "stateMutability": "nonpayable",
      "type": "constructor"
    },
    {
      "inputs": [],
      "name": "CompanyIdZero",
      "type": "error"
    },
    {
      "inputs": [],
      "name": "CompanyNameEmpty",
      "type": "error"
    },
    {
      "inputs": [],
      "name": "EmployeeIdZero",
      "type": "error"
    },
    {
      "inputs": [
        {
          "internalType": "address",
          "name": "owner",
          "type": "address"
        }
      ],
      "name": "OwnableInvalidOwner",
      "type": "error"
    },
    {
      "inputs": [
        {
          "internalType": "address",
          "name": "account",
          "type": "address"
        }
      ],
      "name": "OwnableUnauthorizedAccount",
      "type": "error"
    },
    {
      "inputs": [],
      "name": "SalaryEmpty",
      "type": "error"
    },
    {
      "inputs": [],
      "name": "SameHash",
      "type": "error"
    },
    {
      "anonymous": false,
      "inputs": [
        {
          "indexed": true,
          "internalType": "address",
          "name": "previousOwner",
          "type": "address"
        },
        {
          "indexed": true,
          "internalType": "address",
          "name": "newOwner",
          "type": "address"
        }
      ],
      "name": "OwnershipTransferred",
      "type": "event"
    },
    {
      "anonymous": false,
      "inputs": [
        {
          "indexed": true,
          "internalType": "bytes32",
          "name": "employeeId",
          "type": "bytes32"
        },
        {
          "indexed": false,
          "internalType": "bytes32",
          "name": "hash",
          "type": "bytes32"
        }
      ],
      "name": "SalaryHashSet",
      "type": "event"
    },
    {
      "inputs": [],
      "name": "companyId",
      "outputs": [
        {
          "internalType": "bytes32",
          "name": "",
          "type": "bytes32"
        }
      ],
      "stateMutability": "view",
      "type": "function"
    },
    {
      "inputs": [],
      "name": "companyName",
      "outputs": [
        {
          "internalType": "string",
          "name": "",
          "type": "string"
        }
      ],
      "stateMutability": "view",
      "type": "function"
    },
    {
      "inputs": [],
      "name": "deployer",
      "outputs": [
        {
          "internalType": "address",
          "name": "",
          "type": "address"
        }
      ],
      "stateMutability": "view",
      "type": "function"
    },
    {
      "inputs": [
        {
          "internalType": "bytes32",
          "name": "",
          "type": "bytes32"
        }
      ],
      "name": "employeeSalaryHashes",
      "outputs": [
        {
          "internalType": "bytes32",
          "name": "",
          "type": "bytes32"
        }
      ],
      "stateMutability": "view",
      "type": "function"
    },
    {
      "inputs": [
        {
          "internalType": "bytes32",
          "name": "employeeId",
          "type": "bytes32"
        }
      ],
      "name": "getEmployeeSalaryHash",
      "outputs": [
        {
          "internalType": "bytes32",
          "name": "",
          "type": "bytes32"
        }
      ],
      "stateMutability": "view",
      "type": "function"
    },
    {
      "inputs": [],
      "name": "owner",
      "outputs": [
        {
          "internalType": "address",
          "name": "",
          "type": "address"
        }
      ],
      "stateMutability": "view",
      "type": "function"
    },
    {
      "inputs": [],
      "name": "renounceOwnership",
      "outputs": [],
      "stateMutability": "nonpayable",
      "type": "function"
    },
    {
      "inputs": [
        {
          "internalType": "bytes32",
          "name": "employeeId",
          "type": "bytes32"
        },
        {
          "internalType": "string",
          "name": "salary",
          "type": "string"
        }
      ],
      "name": "setEmployeeSalaryHash",
      "outputs": [],
      "stateMutability": "nonpayable",
      "type": "function"
    },
    {
      "inputs": [
        {
          "internalType": "address",
          "name": "newOwner",
          "type": "address"
        }
      ],
      "name": "transferOwnership",
      "outputs": [],
      "stateMutability": "nonpayable",
      "type": "function"
    }
  ],
  "bytecode": "0x60c060405234801561001057600080fd5b50604051611198380380611198833981810160405281019061003291906103ee565b33600073ffffffffffffffffffffffffffffffffffffffff168173ffffffffffffffffffffffffffffffffffffffff16036100a55760006040517f1e4fbdf700000000000000000000000000000000000000000000000000000000815260040161009c919061048b565b60405180910390fd5b6100b48161017f60201b60201c565b506000801b82036100f1576040517f8df9d68f00000000000000000000000000000000000000000000000000000000815260040160405180910390fd5b600081510361012c576040517f48ea997800000000000000000000000000000000000000000000000000000000815260040160405180910390fd5b8160808181525050806001908161014391906106c7565b503373ffffffffffffffffffffffffffffffffffffffff1660a08173ffffffffffffffffffffffffffffffffffffffff16815250505050610799565b60008060009054906101000a900473ffffffffffffffffffffffffffffffffffffffff169050816000806101000a81548173ffffffffffffffffffffffffffffffffffffffff021916908373ffffffffffffffffffffffffffffffffffffffff1602179055508173ffffffffffffffffffffffffffffffffffffffff168173ffffffffffffffffffffffffffffffffffffffff167f8be0079c531659141344cd1fd0a4f28419497f9722a3daafe3b4186f6b6457e060405160405180910390a35050565b6000604051905090565b600080fd5b600080fd5b6000819050919050565b61026a81610257565b811461027557600080fd5b50565b60008151905061028781610261565b92915050565b600080fd5b600080fd5b6000601f19601f8301169050919050565b7f4e487b7100000000000000000000000000000000000000000000000000000000600052604160045260246000fd5b6102e082610297565b810181811067ffffffffffffffff821117156102ff576102fe6102a8565b5b80604052505050565b6000610312610243565b905061031e82826102d7565b919050565b600067ffffffffffffffff82111561033e5761033d6102a8565b5b61034782610297565b9050602081019050919050565b60005b83811015610372578082015181840152602081019050610357565b60008484015250505050565b600061039161038c84610323565b610308565b9050828152602081018484840111156103ad576103ac610292565b5b6103b8848285610354565b509392505050565b600082601f8301126103d5576103d461028d565b5b81516103e584826020860161037e565b91505092915050565b600080604083850312156104055761040461024d565b5b600061041385828601610278565b925050602083015167ffffffffffffffff81111561043457610433610252565b5b610440858286016103c0565b9150509250929050565b600073ffffffffffffffffffffffffffffffffffffffff82169050919050565b60006104758261044a565b9050919050565b6104858161046a565b82525050565b60006020820190506104a0600083018461047c565b92915050565b600081519050919050565b7f4e487b7100000000000000000000000000000000000000000000000000000000600052602260045260246000fd5b600060028204905060018216806104f857607f821691505b60208210810361050b5761050a6104b1565b5b50919050565b60008190508160005260206000209050919050565b60006020601f8301049050919050565b600082821b905092915050565b6000600883026105737fffffffffffffffffffffffffffffffffffffffffffffffffffffffffffffffff82610536565b61057d8683610536565b95508019841693508086168417925050509392505050565b6000819050919050565b6000819050919050565b60006105c46105bf6105ba84610595565b61059f565b610595565b9050919050565b6000819050919050565b6105de836105a9565b6105f26105ea826105cb565b848454610543565b825550505050565b600090565b6106076105fa565b6106128184846105d5565b505050565b5b818110156106365761062b6000826105ff565b600181019050610618565b5050565b601f82111561067b5761064c81610511565b61065584610526565b81016020851015610664578190505b61067861067085610526565b830182610617565b50505b505050565b600082821c905092915050565b600061069e60001984600802610680565b1980831691505092915050565b60006106b7838361068d565b9150826002028217905092915050565b6106d0826104a6565b67ffffffffffffffff8111156106e9576106e86102a8565b5b6106f382546104e0565b6106fe82828561063a565b600060209050601f831160018114610731576000841561071f578287015190505b61072985826106ab565b865550610791565b601f19841661073f86610511565b60005b8281101561076757848901518255600182019150602085019450602081019050610742565b868310156107845784890151610780601f89168261068d565b8355505b6001600288020188555050505b505050505050565b60805160a0516109da6107be60003960006103830152600061031e01526109da6000f3fe608060405234801561001057600080fd5b50600436106100935760003560e01c8063c576ae3211610066578063c576ae32146100fa578063d5f394881461012a578063dbe2f69c14610148578063f2fde38b14610178578063f5ec2eed1461019457610093565b806338def7aa14610098578063715018a6146100b45780637bc3a733146100be5780638da5cb5b146100dc575b600080fd5b6100b260048036038101906100ad91906106ce565b6101b2565b005b6100bc610308565b005b6100c661031c565b6040516100d3919061073d565b60405180910390f35b6100e4610340565b6040516100f19190610799565b60405180910390f35b610114600480360381019061010f91906107b4565b610369565b604051610121919061073d565b60405180910390f35b610132610381565b60405161013f9190610799565b60405180910390f35b610162600480360381019061015d91906107b4565b6103a5565b60405161016f919061073d565b60405180910390f35b610192600480360381019061018d919061080d565b6103c2565b005b61019c610448565b6040516101a991906108ca565b60405180910390f35b6101ba6104d6565b6000801b83036101f6576040517f04c58aa300000000000000000000000000000000000000000000000000000000815260040160405180910390fd5b60008282905003610233576040517f7940b75500000000000000000000000000000000000000000000000000000000815260040160405180910390fd5b6000828260405160200161024892919061092b565b6040516020818303038152906040528051906020012090506000600260008681526020019081526020016000205490508181036102b1576040517f241a34a000000000000000000000000000000000000000000000000000000000815260040160405180910390fd5b816002600087815260200190815260200160002081905550847fe8bf80d7a1c8d908894b36c8a9db00a1406dfa19ffa029df3239fe8c64ecfb43836040516102f9919061073d565b60405180910390a25050505050565b6103106104d6565b61031a600061055d565b565b7f000000000000000000000000000000000000000000000000000000000000000081565b60008060009054906101000a900473ffffffffffffffffffffffffffffffffffffffff16905090565b60026020528060005260406000206000915090505481565b7f000000000000000000000000000000000000000000000000000000000000000081565b600060026000838152602001908152602001600020549050919050565b6103ca6104d6565b600073ffffffffffffffffffffffffffffffffffffffff168173ffffffffffffffffffffffffffffffffffffffff160361043c5760006040517f1e4fbdf70000000000000000000000000000000000000000000000000000000081526004016104339190610799565b60405180910390fd5b6104458161055d565b50565b6001805461045590610973565b80601f016020809104026020016040519081016040528092919081815260200182805461048190610973565b80156104ce5780601f106104a3576101008083540402835291602001916104ce565b820191906000526020600020905b8154815290600101906020018083116104b157829003601f168201915b505050505081565b6104de610621565b73ffffffffffffffffffffffffffffffffffffffff166104fc610340565b73ffffffffffffffffffffffffffffffffffffffff161461055b5761051f610621565b6040517f118cdaa70000000000000000000000000000000000000000000000000000000081526004016105529190610799565b60405180910390fd5b565b60008060009054906101000a900473ffffffffffffffffffffffffffffffffffffffff169050816000806101000a81548173ffffffffffffffffffffffffffffffffffffffff021916908373ffffffffffffffffffffffffffffffffffffffff1602179055508173ffffffffffffffffffffffffffffffffffffffff168173ffffffffffffffffffffffffffffffffffffffff167f8be0079c531659141344cd1fd0a4f28419497f9722a3daafe3b4186f6b6457e060405160405180910390a35050565b600033905090565b600080fd5b600080fd5b6000819050919050565b61064681610633565b811461065157600080fd5b50565b6000813590506106638161063d565b92915050565b600080fd5b600080fd5b600080fd5b60008083601f84011261068e5761068d610669565b5b8235905067ffffffffffffffff8111156106ab576106aa61066e565b5b6020830191508360018202830111156106c7576106c6610673565b5b9250929050565b6000806000604084860312156106e7576106e6610629565b5b60006106f586828701610654565b935050602084013567ffffffffffffffff8111156107165761071561062e565b5b61072286828701610678565b92509250509250925092565b61073781610633565b82525050565b6000602082019050610752600083018461072e565b92915050565b600073ffffffffffffffffffffffffffffffffffffffff82169050919050565b600061078382610758565b9050919050565b61079381610778565b82525050565b60006020820190506107ae600083018461078a565b92915050565b6000602082840312156107ca576107c9610629565b5b60006107d884828501610654565b91505092915050565b6107ea81610778565b81146107f557600080fd5b50565b600081359050610807816107e1565b92915050565b60006020828403121561082357610822610629565b5b6000610831848285016107f8565b91505092915050565b600081519050919050565b600082825260208201905092915050565b60005b83811015610874578082015181840152602081019050610859565b60008484015250505050565b6000601f19601f8301169050919050565b600061089c8261083a565b6108a68185610845565b93506108b6818560208601610856565b6108bf81610880565b840191505092915050565b600060208201905081810360008301526108e48184610891565b905092915050565b600081905092915050565b82818337600083830152505050565b600061091283856108ec565b935061091f8385846108f7565b82840190509392505050565b6000610938828486610906565b91508190509392505050565b7f4e487b7100000000000000000000000000000000000000000000000000000000600052602260045260246000fd5b6000600282049050600182168061098b57607f821691505b60208210810361099e5761099d610944565b5b5091905056fea26469706673582212209b689014ace5b85602d8b607fd9fabdb7af0f9f52f82dab79d7ce400bf7b820c64736f6c634300081b0033",
  "linkReferences": {},
  "deployedLinkReferences": {}
}