{
  "_format": "hh-sol-artifact-1",
  "contractName": "CompanyPayroll",
  "sourceName": "contracts/employees-details/CompanyPayroll.sol",
  "abi": [
    {
      "inputs": [
        {
          "internalType": "bytes32",
          "name": "_companyId",
          "type": "bytes32"
        },
        {
          "internalType": "string",
          "name": "_companyName",
          "type": "string"
        }
      ],
      "stateMutability": "nonpayable",
      "type": "constructor"
    },
    {
      "inputs": [],
      "name": "CompanyIdZero",
      "type": "error"
    },
    {
      "inputs": [],
      "name": "CompanyNameEmpty",
      "type": "error"
    },
    {
      "inputs": [],
      "name": "EmployeeIdEmpty",
      "type": "error"
    },
    {
      "inputs": [
        {
          "internalType": "address",
          "name": "owner",
          "type": "address"
        }
      ],
      "name": "OwnableInvalidOwner",
      "type": "error"
    },
    {
      "inputs": [
        {
          "internalType": "address",
          "name": "account",
          "type": "address"
        }
      ],
      "name": "OwnableUnauthorizedAccount",
      "type": "error"
    },
    {
      "inputs": [],
      "name": "SalaryEmpty",
      "type": "error"
    },
    {
      "inputs": [],
      "name": "SameHash",
      "type": "error"
    },
    {
      "anonymous": false,
      "inputs": [
        {
          "indexed": true,
          "internalType": "address",
          "name": "previousOwner",
          "type": "address"
        },
        {
          "indexed": true,
          "internalType": "address",
          "name": "newOwner",
          "type": "address"
        }
      ],
      "name": "OwnershipTransferred",
      "type": "event"
    },
    {
      "anonymous": false,
      "inputs": [
        {
          "indexed": true,
          "internalType": "string",
          "name": "employeeId",
          "type": "string"
        },
        {
          "indexed": false,
          "internalType": "string",
          "name": "hash",
          "type": "string"
        }
      ],
      "name": "SalaryHashSet",
      "type": "event"
    },
    {
      "inputs": [],
      "name": "companyId",
      "outputs": [
        {
          "internalType": "bytes32",
          "name": "",
          "type": "bytes32"
        }
      ],
      "stateMutability": "view",
      "type": "function"
    },
    {
      "inputs": [],
      "name": "companyName",
      "outputs": [
        {
          "internalType": "string",
          "name": "",
          "type": "string"
        }
      ],
      "stateMutability": "view",
      "type": "function"
    },
    {
      "inputs": [],
      "name": "deployer",
      "outputs": [
        {
          "internalType": "address",
          "name": "",
          "type": "address"
        }
      ],
      "stateMutability": "view",
      "type": "function"
    },
    {
      "inputs": [
        {
          "internalType": "string",
          "name": "",
          "type": "string"
        }
      ],
      "name": "employeeSalaryHashes",
      "outputs": [
        {
          "internalType": "string",
          "name": "",
          "type": "string"
        }
      ],
      "stateMutability": "view",
      "type": "function"
    },
    {
      "inputs": [],
      "name": "getAllEmployeeDetails",
      "outputs": [
        {
          "internalType": "string[]",
          "name": "",
          "type": "string[]"
        },
        {
          "internalType": "string[]",
          "name": "",
          "type": "string[]"
        }
      ],
      "stateMutability": "view",
      "type": "function"
    },
    {
      "inputs": [
        {
          "internalType": "string",
          "name": "employeeId",
          "type": "string"
        }
      ],
      "name": "getEmployeeSalaryHash",
      "outputs": [
        {
          "internalType": "string",
          "name": "",
          "type": "string"
        }
      ],
      "stateMutability": "view",
      "type": "function"
    },
    {
      "inputs": [],
      "name": "owner",
      "outputs": [
        {
          "internalType": "address",
          "name": "",
          "type": "address"
        }
      ],
      "stateMutability": "view",
      "type": "function"
    },
    {
      "inputs": [],
      "name": "renounceOwnership",
      "outputs": [],
      "stateMutability": "nonpayable",
      "type": "function"
    },
    {
      "inputs": [
        {
          "internalType": "string",
          "name": "employeeId",
          "type": "string"
        },
        {
          "internalType": "string",
          "name": "salary",
          "type": "string"
        }
      ],
      "name": "setEmployeeSalaryHash",
      "outputs": [],
      "stateMutability": "nonpayable",
      "type": "function"
    },
    {
      "inputs": [
        {
          "internalType": "address",
          "name": "newOwner",
          "type": "address"
        }
      ],
      "name": "transferOwnership",
      "outputs": [],
      "stateMutability": "nonpayable",
      "type": "function"
    }
  ],
  "bytecode": "0x60c060405234801561001057600080fd5b50604051611e28380380611e28833981810160405281019061003291906103ee565b33600073ffffffffffffffffffffffffffffffffffffffff168173ffffffffffffffffffffffffffffffffffffffff16036100a55760006040517f1e4fbdf700000000000000000000000000000000000000000000000000000000815260040161009c919061048b565b60405180910390fd5b6100b48161017f60201b60201c565b506000801b82036100f1576040517f8df9d68f00000000000000000000000000000000000000000000000000000000815260040160405180910390fd5b600081510361012c576040517f48ea997800000000000000000000000000000000000000000000000000000000815260040160405180910390fd5b8160808181525050806001908161014391906106c7565b503373ffffffffffffffffffffffffffffffffffffffff1660a08173ffffffffffffffffffffffffffffffffffffffff16815250505050610799565b60008060009054906101000a900473ffffffffffffffffffffffffffffffffffffffff169050816000806101000a81548173ffffffffffffffffffffffffffffffffffffffff021916908373ffffffffffffffffffffffffffffffffffffffff1602179055508173ffffffffffffffffffffffffffffffffffffffff168173ffffffffffffffffffffffffffffffffffffffff167f8be0079c531659141344cd1fd0a4f28419497f9722a3daafe3b4186f6b6457e060405160405180910390a35050565b6000604051905090565b600080fd5b600080fd5b6000819050919050565b61026a81610257565b811461027557600080fd5b50565b60008151905061028781610261565b92915050565b600080fd5b600080fd5b6000601f19601f8301169050919050565b7f4e487b7100000000000000000000000000000000000000000000000000000000600052604160045260246000fd5b6102e082610297565b810181811067ffffffffffffffff821117156102ff576102fe6102a8565b5b80604052505050565b6000610312610243565b905061031e82826102d7565b919050565b600067ffffffffffffffff82111561033e5761033d6102a8565b5b61034782610297565b9050602081019050919050565b60005b83811015610372578082015181840152602081019050610357565b60008484015250505050565b600061039161038c84610323565b610308565b9050828152602081018484840111156103ad576103ac610292565b5b6103b8848285610354565b509392505050565b600082601f8301126103d5576103d461028d565b5b81516103e584826020860161037e565b91505092915050565b600080604083850312156104055761040461024d565b5b600061041385828601610278565b925050602083015167ffffffffffffffff81111561043457610433610252565b5b610440858286016103c0565b9150509250929050565b600073ffffffffffffffffffffffffffffffffffffffff82169050919050565b60006104758261044a565b9050919050565b6104858161046a565b82525050565b60006020820190506104a0600083018461047c565b92915050565b600081519050919050565b7f4e487b7100000000000000000000000000000000000000000000000000000000600052602260045260246000fd5b600060028204905060018216806104f857607f821691505b60208210810361050b5761050a6104b1565b5b50919050565b60008190508160005260206000209050919050565b60006020601f8301049050919050565b600082821b905092915050565b6000600883026105737fffffffffffffffffffffffffffffffffffffffffffffffffffffffffffffffff82610536565b61057d8683610536565b95508019841693508086168417925050509392505050565b6000819050919050565b6000819050919050565b60006105c46105bf6105ba84610595565b61059f565b610595565b9050919050565b6000819050919050565b6105de836105a9565b6105f26105ea826105cb565b848454610543565b825550505050565b600090565b6106076105fa565b6106128184846105d5565b505050565b5b818110156106365761062b6000826105ff565b600181019050610618565b5050565b601f82111561067b5761064c81610511565b61065584610526565b81016020851015610664578190505b61067861067085610526565b830182610617565b50505b505050565b600082821c905092915050565b600061069e60001984600802610680565b1980831691505092915050565b60006106b7838361068d565b9150826002028217905092915050565b6106d0826104a6565b67ffffffffffffffff8111156106e9576106e86102a8565b5b6106f382546104e0565b6106fe82828561063a565b600060209050601f831160018114610731576000841561071f578287015190505b61072985826106ab565b865550610791565b601f19841661073f86610511565b60005b8281101561076757848901518255600182019150602085019450602081019050610742565b868310156107845784890151610780601f89168261068d565b8355505b6001600288020188555050505b505050505050565b60805160a05161166a6107be60003960006108b401526000610572015261166a6000f3fe608060405234801561001057600080fd5b506004361061009e5760003560e01c8063c651a26111610066578063c651a26114610135578063d093f9a414610165578063d5f3948814610184578063f2fde38b146101a2578063f5ec2eed146101be5761009e565b8063162ff2ef146100a357806338640a06146100bf578063715018a6146100ef5780637bc3a733146100f95780638da5cb5b14610117575b600080fd5b6100bd60048036038101906100b89190610bb6565b6101dc565b005b6100d960048036038101906100d49190610c37565b6104a9565b6040516100e69190610d14565b60405180910390f35b6100f761055c565b005b610101610570565b60405161010e9190610d4f565b60405180910390f35b61011f610594565b60405161012c9190610dab565b60405180910390f35b61014f600480360381019061014a9190610ef6565b6105bd565b60405161015c9190610d14565b60405180910390f35b61016d610673565b60405161017b92919061104b565b60405180910390f35b61018c6108b2565b6040516101999190610dab565b60405180910390f35b6101bc60048036038101906101b791906110ae565b6108d6565b005b6101c661095c565b6040516101d39190610d14565b60405180910390f35b6101e46109ea565b60008484905003610221576040517f191e615e00000000000000000000000000000000000000000000000000000000815260040160405180910390fd5b6000828290500361025e576040517f7940b75500000000000000000000000000000000000000000000000000000000815260040160405180910390fd5b6000828260405160200161027392919061110b565b604051602081830303815290604052805190602001206040516020016102999190611145565b60405160208183030381529060405290506000600286866040516102be92919061110b565b908152602001604051809103902080546102d79061118f565b80601f01602080910402602001604051908101604052809291908181526020018280546103039061118f565b80156103505780601f1061032557610100808354040283529160200191610350565b820191906000526020600020905b81548152906001019060200180831161033357829003601f168201915b505050505090508160405160200161036891906111f1565b604051602081830303815290604052805190602001208160405160200161038f91906111f1565b60405160208183030381529060405280519060200120036103dc576040517f241a34a000000000000000000000000000000000000000000000000000000000815260040160405180910390fd5b60008151036104245760038686909180600181540180825580915050600190039060005260206000200160009091929091929091929091925091826104229291906113c9565b505b816002878760405161043792919061110b565b908152602001604051809103902090816104519190611499565b50858560405161046292919061110b565b60405180910390207ff32b43076553bbf764e5bb075439bdbf3391d56468d2a4a198c1f8a8e38aed24836040516104999190610d14565b60405180910390a2505050505050565b6060600283836040516104bd92919061110b565b908152602001604051809103902080546104d69061118f565b80601f01602080910402602001604051908101604052809291908181526020018280546105029061118f565b801561054f5780601f106105245761010080835404028352916020019161054f565b820191906000526020600020905b81548152906001019060200180831161053257829003601f168201915b5050505050905092915050565b6105646109ea565b61056e6000610a71565b565b7f000000000000000000000000000000000000000000000000000000000000000081565b60008060009054906101000a900473ffffffffffffffffffffffffffffffffffffffff16905090565b60028180516020810182018051848252602083016020850120818352809550505050505060009150905080546105f29061118f565b80601f016020809104026020016040519081016040528092919081815260200182805461061e9061118f565b801561066b5780601f106106405761010080835404028352916020019161066b565b820191906000526020600020905b81548152906001019060200180831161064e57829003601f168201915b505050505081565b606080600060038054905067ffffffffffffffff81111561069757610696610dcb565b5b6040519080825280602002602001820160405280156106ca57816020015b60608152602001906001900390816106b55790505b5090506000600380549050905060005b818110156107d1576002600382815481106106f8576106f761156b565b5b9060005260206000200160405161070f919061161d565b908152602001604051809103902080546107289061118f565b80601f01602080910402602001604051908101604052809291908181526020018280546107549061118f565b80156107a15780601f10610776576101008083540402835291602001916107a1565b820191906000526020600020905b81548152906001019060200180831161078457829003601f168201915b50505050508382815181106107b9576107b861156b565b5b602002602001018190525080806001019150506106da565b5060038281805480602002602001604051908101604052809291908181526020016000905b828210156108a25783829060005260206000200180546108159061118f565b80601f01602080910402602001604051908101604052809291908181526020018280546108419061118f565b801561088e5780601f106108635761010080835404028352916020019161088e565b820191906000526020600020905b81548152906001019060200180831161087157829003601f168201915b5050505050815260200190600101906107f6565b5050505091509350935050509091565b7f000000000000000000000000000000000000000000000000000000000000000081565b6108de6109ea565b600073ffffffffffffffffffffffffffffffffffffffff168173ffffffffffffffffffffffffffffffffffffffff16036109505760006040517f1e4fbdf70000000000000000000000000000000000000000000000000000000081526004016109479190610dab565b60405180910390fd5b61095981610a71565b50565b600180546109699061118f565b80601f01602080910402602001604051908101604052809291908181526020018280546109959061118f565b80156109e25780601f106109b7576101008083540402835291602001916109e2565b820191906000526020600020905b8154815290600101906020018083116109c557829003601f168201915b505050505081565b6109f2610b35565b73ffffffffffffffffffffffffffffffffffffffff16610a10610594565b73ffffffffffffffffffffffffffffffffffffffff1614610a6f57610a33610b35565b6040517f118cdaa7000000000000000000000000000000000000000000000000000000008152600401610a669190610dab565b60405180910390fd5b565b60008060009054906101000a900473ffffffffffffffffffffffffffffffffffffffff169050816000806101000a81548173ffffffffffffffffffffffffffffffffffffffff021916908373ffffffffffffffffffffffffffffffffffffffff1602179055508173ffffffffffffffffffffffffffffffffffffffff168173ffffffffffffffffffffffffffffffffffffffff167f8be0079c531659141344cd1fd0a4f28419497f9722a3daafe3b4186f6b6457e060405160405180910390a35050565b600033905090565b6000604051905090565b600080fd5b600080fd5b600080fd5b600080fd5b600080fd5b60008083601f840112610b7657610b75610b51565b5b8235905067ffffffffffffffff811115610b9357610b92610b56565b5b602083019150836001820283011115610baf57610bae610b5b565b5b9250929050565b60008060008060408587031215610bd057610bcf610b47565b5b600085013567ffffffffffffffff811115610bee57610bed610b4c565b5b610bfa87828801610b60565b9450945050602085013567ffffffffffffffff811115610c1d57610c1c610b4c565b5b610c2987828801610b60565b925092505092959194509250565b60008060208385031215610c4e57610c4d610b47565b5b600083013567ffffffffffffffff811115610c6c57610c6b610b4c565b5b610c7885828601610b60565b92509250509250929050565b600081519050919050565b600082825260208201905092915050565b60005b83811015610cbe578082015181840152602081019050610ca3565b60008484015250505050565b6000601f19601f8301169050919050565b6000610ce682610c84565b610cf08185610c8f565b9350610d00818560208601610ca0565b610d0981610cca565b840191505092915050565b60006020820190508181036000830152610d2e8184610cdb565b905092915050565b6000819050919050565b610d4981610d36565b82525050565b6000602082019050610d646000830184610d40565b92915050565b600073ffffffffffffffffffffffffffffffffffffffff82169050919050565b6000610d9582610d6a565b9050919050565b610da581610d8a565b82525050565b6000602082019050610dc06000830184610d9c565b92915050565b600080fd5b7f4e487b7100000000000000000000000000000000000000000000000000000000600052604160045260246000fd5b610e0382610cca565b810181811067ffffffffffffffff82111715610e2257610e21610dcb565b5b80604052505050565b6000610e35610b3d565b9050610e418282610dfa565b919050565b600067ffffffffffffffff821115610e6157610e60610dcb565b5b610e6a82610cca565b9050602081019050919050565b82818337600083830152505050565b6000610e99610e9484610e46565b610e2b565b905082815260208101848484011115610eb557610eb4610dc6565b5b610ec0848285610e77565b509392505050565b600082601f830112610edd57610edc610b51565b5b8135610eed848260208601610e86565b91505092915050565b600060208284031215610f0c57610f0b610b47565b5b600082013567ffffffffffffffff811115610f2a57610f29610b4c565b5b610f3684828501610ec8565b91505092915050565b600081519050919050565b600082825260208201905092915050565b6000819050602082019050919050565b600082825260208201905092915050565b6000610f8782610c84565b610f918185610f6b565b9350610fa1818560208601610ca0565b610faa81610cca565b840191505092915050565b6000610fc18383610f7c565b905092915050565b6000602082019050919050565b6000610fe182610f3f565b610feb8185610f4a565b935083602082028501610ffd85610f5b565b8060005b85811015611039578484038952815161101a8582610fb5565b945061102583610fc9565b925060208a01995050600181019050611001565b50829750879550505050505092915050565b600060408201905081810360008301526110658185610fd6565b905081810360208301526110798184610fd6565b90509392505050565b61108b81610d8a565b811461109657600080fd5b50565b6000813590506110a881611082565b92915050565b6000602082840312156110c4576110c3610b47565b5b60006110d284828501611099565b91505092915050565b600081905092915050565b60006110f283856110db565b93506110ff838584610e77565b82840190509392505050565b60006111188284866110e6565b91508190509392505050565b6000819050919050565b61113f61113a82610d36565b611124565b82525050565b6000611151828461112e565b60208201915081905092915050565b7f4e487b7100000000000000000000000000000000000000000000000000000000600052602260045260246000fd5b600060028204905060018216806111a757607f821691505b6020821081036111ba576111b9611160565b5b50919050565b60006111cb82610c84565b6111d581856110db565b93506111e5818560208601610ca0565b80840191505092915050565b60006111fd82846111c0565b915081905092915050565b600082905092915050565b60008190508160005260206000209050919050565b60006020601f8301049050919050565b600082821b905092915050565b6000600883026112757fffffffffffffffffffffffffffffffffffffffffffffffffffffffffffffffff82611238565b61127f8683611238565b95508019841693508086168417925050509392505050565b6000819050919050565b6000819050919050565b60006112c66112c16112bc84611297565b6112a1565b611297565b9050919050565b6000819050919050565b6112e0836112ab565b6112f46112ec826112cd565b848454611245565b825550505050565b600090565b6113096112fc565b6113148184846112d7565b505050565b5b818110156113385761132d600082611301565b60018101905061131a565b5050565b601f82111561137d5761134e81611213565b61135784611228565b81016020851015611366578190505b61137a61137285611228565b830182611319565b50505b505050565b600082821c905092915050565b60006113a060001984600802611382565b1980831691505092915050565b60006113b9838361138f565b9150826002028217905092915050565b6113d38383611208565b67ffffffffffffffff8111156113ec576113eb610dcb565b5b6113f6825461118f565b61140182828561133c565b6000601f831160018114611430576000841561141e578287013590505b61142885826113ad565b865550611490565b601f19841661143e86611213565b60005b8281101561146657848901358255600182019150602085019450602081019050611441565b86831015611483578489013561147f601f89168261138f565b8355505b6001600288020188555050505b50505050505050565b6114a282610c84565b67ffffffffffffffff8111156114bb576114ba610dcb565b5b6114c5825461118f565b6114d082828561133c565b600060209050601f83116001811461150357600084156114f1578287015190505b6114fb85826113ad565b865550611563565b601f19841661151186611213565b60005b8281101561153957848901518255600182019150602085019450602081019050611514565b868310156115565784890151611552601f89168261138f565b8355505b6001600288020188555050505b505050505050565b7f4e487b7100000000000000000000000000000000000000000000000000000000600052603260045260246000fd5b600081546115a78161118f565b6115b181866110db565b945060018216600081146115cc57600181146115e157611614565b60ff1983168652811515820286019350611614565b6115ea85611213565b60005b8381101561160c578154818901526001820191506020810190506115ed565b838801955050505b50505092915050565b6000611629828461159a565b91508190509291505056fea264697066735822122091b34acc2fe63030a769ea4c2c1b98fb0c037b4ca489cce6832e8bd42750dfb864736f6c634300081b0033",
  "linkReferences": {},
  "deployedLinkReferences": {}
}